:020000040800F2
:1000000040050020490100087B1A0008DB180008A1
:10001000791A000857020008E11F000800000000DC
:100020000000000000000000000000001D1D00088E
:10003000EB020008000000007D1A00081F1D0008E8
:100040006301000863010008630100086301000800
:100050006301000863010008ED0200086301000865
:1000600063010008630100086301000863010008E0
:10007000590200088D0200086301000863010008AE
:1000800063010008630100086301000863010008C0
:1000900063010008630100086301000863010008B0
:1000A00063010008630100086301000863010008A0
:1000B0006301000863010008630100086301000890
:1000C0006301000863010008630100086301000880
:1000D00063010008D51F00086301000863010008E0
:1000E000F3020008630100086301000863010008CF
:1000F0006301000863010008630100086301000850
:10010000630100086301000863010008630100083F
:10011000630100086301000863010008630100082F
:10012000630100086301000863010008630100081F
:10013000DFF810D000F06EF8004800471D230008DB
:10014000AFF300804005002006488047064800477E
:10015000FEE7FEE7FEE7FEE7FEE7FEE7FEE7FEE777
:10016000FEE7FEE7811D000831010008202A04DBBC
:10017000203A21FA02F00021704721FA02F3D04020
:10018000C2F120029140084319467047D2B201E003
:1001900000F8012B491EFBD270470022F6E710B58C
:1001A00013460A4604461946FFF7F0FF204610BDE5
:1001B0002DE9F05F0546002092469B46884606469C
:1001C000814640241BE02846414647462246FFF729
:1001D000CDFF53465A46C01A914110D311461846D6
:1001E000224600F029F82D1A67EB01084F462246F7
:1001F0000120002100F020F817EB00094E41201EDD
:10020000A4F10104DFDC484631462A464346BDE8F6
:10021000F09F0000064C074D06E0E06840F0010347
:1002200094E8070098471034AC42F6D3FFF784FFF8
:100230000824000828240008202A04DB203A00FAB9
:1002400002F1002070479140C2F1200320FA03F32D
:10025000194390407047FEE710B504A001F0C2FEBC
:10026000BDE81040084800F005B90000444D413198
:100270005F4368616E6E656C325F49525148616ED2
:10028000646C65720D0A00006C00002010B504A0BB
:1002900001F0A8FEBDE81040084800F0EBB80000EF
:1002A000444D41315F4368616E6E656C335F495206
:1002B0005148616E646C65720D0A0000B000002048
:1002C00030B590F840500124AC40C56B6C600468B8
:1002D00063604368102B036803D099600068C260B4
:1002E00030BD9A600068C16030BD7047012000F0E9
:1002F00079BA4FF4005000F075BA72B6FEE710B547
:1003000090F821100022022905D00421816380F891
:100310002020012010BD01680B6823F00E030B6044
:1003200001680B6823F001030B6090F84030C46B48
:10033000012101FA03F3636080F8211080F8202086
:10034000104610BD2DE9F05F90F82110002402291D
:1003500003D004218163012485E001680A6822F04A
:100360000E020A6001680A6822F001020A603F4E2C
:100370003E4FB215DFF8F4C0DFF8F090DFF8ECA0E4
:10038000DFF8E8B0DFF8E4E00168783F1301150218
:10039000ACF1640CA9F15009AAF13C0AABF1280BAD
:1003A000AEF1140E4FF48018B14227D9B9420ED0E5
:1003B000614512D049451DD0514518D0594518D036
:1003C000714501D1424615E0294EB14201D10122C9
:1003D00010E0274E1436B14201D110220AE0244E1B
:1003E0002836B14206D0224A3C32914201D11A4607
:1003F00000E02A461E49091F0A602BE0B94213D0CB
:10040000614517D0494522D051451DD059451DD0D1
:10041000714501D142461AE0B14202D14FF08072DB
:1004200015E0134EB14201D1012210E0104E1436F6
:10043000B14201D110220AE00D4E2836B14206D059
:100440000B4A3C32914201D11A4600E02A46074944
:1004500080394A60012180F82110002180F82010A5
:10046000416B01B188472046BDE8F09F8000024003
:10047000080402402DE9F05FC16B0A6801680B684F
:10048000046C4FF0040808FA04F8844D844E854F3C
:10049000DFF814C2DFF81492DFF814A2DFF814B208
:1004A000DFF814E218EA020F65D05FEA437862D5FC
:1004B0000A68920603D40A6822F004020A60DFF890
:1004C000F0814FF48062016808F1140813011402EE
:1004D000414524D9A9420DD0B1420FD0B9421AD01A
:1004E000614515D0494515D0514501D1120312E09F
:1004F000594501D104220EE0714501D140220AE0A4
:100500006D4D1435A94206D06B4A2832914201D173
:100510001A4600E022466749091F0A6029E0A942FD
:1005200013D0B14215D0B94220D061451BD0494506
:100530001BD0514502D14FF4800217E0414502D152
:100540004FF0806212E0594501D104220EE071455E
:1005500001D140220AE0584D1435A94206D0564A2E
:100560002832914201D11A4600E022464B4908390F
:100570004A60C16A71E04FF0020808FA04F818EA0C
:10058000020F70D05FEA83786DD50A68920606D4B0
:100590000A6822F00A020A60012180F82110DFF8BF
:1005A00010814FF40072016808F11408130114025D
:1005B000414524D9A9420DD0B1420FD0B9421AD039
:1005C000614515D0494515D0514501D1120312E0BE
:1005D000594501D102220EE0714501D120220AE0E5
:1005E000354D1435A94206D0334A2832914201D103
:1005F0001A4600E022462F49091F0A6029E0A94255
:1006000013D0B14215D0B94220D061451BD0494525
:100610001BD0514502D14FF4001217E0414502D1E1
:100620004FF0007212E0594501D102220EE07145EF
:1006300001D120220AE0204D1435A94206D01E4ADD
:100640002832914201D11A4600E022461349083966
:100650004A60002180F82010816A00291CD0BDE882
:10066000F05F0847FFE70825A540154214D01A0798
:1006700012D50A6822F00E020A6090F84020C36B7F
:10068000012101FA02F25A60816380F821100021F1
:1006900080F82010016BE0E7BDE8F09F0800024001
:1006A0001C0002403000024044000240580002405A
:1006B0006C000240080402401C04024030B560B1E6
:1006C0001A4B026814219A4209D2194B1344B3FB06
:1006D000F1F18900016417490AE0012030BD134B94
:1006E0005B421344B3FBF1F1890001640F490839FF
:1006F000C163022180F82110136843F6F0718B4327
:10070000F0E901142143D0E902452C432143046957
:100710002143446921438469214319431160002125
:100720004163012242770177084630BD0804024048
:10073000F8FFFDBF0000024070B5044690F82000AD
:10074000002501280CD0012084F8200094F82160B5
:100750000020012E06D084F820000225284670BD16
:10076000022070BD022684F82160A063206806681C
:1007700026F0010606602046FFF7A2FDE06A002889
:100780002068016802D041F00E0106E021F004016A
:1007900001602068016841F00A0101602068016879
:1007A00041F001010160D9E770B5044600F030F96D
:1007B0000546601C02D004480078044400F028F983
:1007C000401BA042FAD370BD00000020012802D0D7
:1007D000B0F5005F03D12321014800F00BB9704749
:1007E000000C0140044910B50A68024202D00860BA
:1007F000FFF7ECFF10BD0000140401402DE9F84F95
:10080000DFF8C8910024A9F1040B23460F2709F152
:10081000040AABF1040ED1E00125A54006EA050269
:10082000AA4276D1DFF8A8C14E68A6EB0C0866454F
:100830002BD00DDC032E34D005DC36B3012E19D0BD
:10084000022E2FD11BE0112E16D0122E2AD119E024
:10085000B8F5881F19D006DCB8F5803F15D0B8F57B
:10086000801F1FD111E0B8F5001F0ED0B8F5041F8E
:1008700018D10AE0CB6815E0CB681B1D12E0CB68ED
:1008800008330FE0CB680C330CE08B682BB1012BE5
:100890004FF0080303D0456104E0042302E0056142
:1008A00000E00023FF2A01D8064601E000F104061B
:1008B0004FEA840501D9A5F12005D6F8008007FA92
:1008C00005FC28EA0C0803FA05F548EA0508C6F80D
:1008D00000804D68ED0070D53E4DAE6946F00106D2
:1008E000AE61AD6924F0030605F0010500953A4DAF
:1008F00006EB050CDCF80850A607360F07FA06F8D9
:1009000025EA0805DFF8D480404503D14FF0000800
:1009100025E052E0DFF8C880404502D14FF00108E1
:100920001DE0DFF8C080404502D14FF0020816E01C
:10093000DFF8B480404502D14FF003080FE0DFF844
:10094000AC80404502D14FF0040808E0DFF8A080F9
:10095000404502D14FF0050801E04FF0060808FAC3
:1009600006F848EA0508CCF808804D68D9F8006018
:10097000ED024D4601D5164300E096432E604D68CA
:10098000DAF80060AD02554601D5164300E0964303
:100990002E604D68DBF80060AD035D4601D516435F
:1009A00000E096432E604D68DEF80060ED0375466A
:1009B00001D5164300E096432E60641C0A68164673
:1009C000E2407FF429AFBDE8F88F00000804014041
:1009D000000011100010024000000140000801401A
:1009E000000C0140001001400014014000180140BB
:1009F000001C0140C26821EA02030A4043EA0241A6
:100A0000016170470AB1016170470904FBE700000A
:100A1000014880687047000000000020024881689B
:100A2000027811448160704700000020074810B52B
:100A3000016841F010010160032000F075F80F20FB
:100A400000F006F800F024F8002010BD002002405D
:100A500070B50D4D04464FF47A712878B1FBF0F073
:100A60000A490968B1FBF0F000F029FD48B9102CE3
:100A700007D200222146501E00F036F800206C609C
:100A800070BD012070BD0000000000200C0000209F
:100A90000C4808B5816941F001018161816901F06B
:100AA00001010091C16941F08051C161C06900F04C
:100AB000805000900448416821F0E06141F00071ED
:100AC000416008BD0010024000000140002809DB21
:100AD00000F01F02012191404009800000F1E02058
:100AE000C0F8001170470000F0B40E4B1B680C46B4
:100AF000C3F30223C3F10705042D00D90425191DF2
:100B0000072901D2002300E0DB1E012606FA05F1C9
:100B1000491E214099409E40761E16403143F0BC4C
:100B200001F070BA0CED00E0064900F00702086819
:100B30004FF6FF03184040EA0220034A10430860C2
:100B4000704700000CED00E00000FA052DE9F047C9
:100B50000F46050061D0434E306800F00700B842F0
:100B600009D2306820F0070038433060306800F068
:100B70000700B84251D128683B4C810712D5400785
:100B800003D5606840F4E06060602878000703D512
:100B9000606840F4605060606068A96820F0F00010
:100BA000084360602878C00728D06868012810D002
:100BB0002168022810D0890700292EDA616821F007
:100BC000030101436160FFF723FF804641F288394A
:100BD0000DE021688903EFE78901EDE7FFF718FFD2
:100BE000A0EB0801494502D90320BDE8F087606801
:100BF000696800F00C00B0EB810FEFD1306800F0B5
:100C00000700B8420BD9306820F007003843306045
:100C1000306800F00700B84201D00120E5E72878ED
:100C2000400705D56068E96820F4E060084360602B
:100C30002878000706D56068296920F4605040EAEA
:100C4000C100606000F038F86168084AC1F3031120
:100C5000515CC8400649086006480068FFF7F8FE86
:100C60000020C2E70020024000100240EE230008EE
:100C70000C00002004000020044805490068496871
:100C8000044AC1F30221515CC84070470C000020A7
:100C900000100240FE230008044805490068496826
:100CA000044AC1F3C221515CC84070470C000020C7
:100CB00000100240FE2300080E4A51680E4801F061
:100CC0000C03042B11D0082B0FD10C48C1F3834324
:100CD000C903C05C0AD55168084AC1F34041921E5D
:100CE000515C054A5043B0FBF1F07047044948435A
:100CF000704700000010024000127A00DE23000856
:100D000000093D002DE9F84F040070D02078C04D57
:100D1000C00749D06868C0F38100012807D068681F
:100D2000C0F38100022809D16868C00306D528688D
:100D3000800339D560680028E7D035E06068B0F5F9
:100D4000803F0BD010B1B0F5A02F11D0286820F44F
:100D500080302860286820F4802002E0286840F471
:100D600080302860606890B1FFF752FE06460AE0C6
:100D7000286840F480202860F0E700BFFFF748FEB5
:100D8000801B642873D828688003F7D50CE0FFF730
:100D90003FFE064605E000BFFFF73AFE801B6428D1
:100DA000F0D828688003F7D420789A4E80074FF057
:100DB00001094FF0000839D5686810F00C0F07D012
:100DC0006868C0F38100022809D16868C00306D4AE
:100DD0002868800714D52069012808D110E020690F
:100DE000B0B1C6F80090FFF713FE074605E00AE130
:100DF000FFF70EFEC01B0228C4D828688007F7D56D
:100E00002868616920F0F80040EAC10028600DE020
:100E1000C6F80080FFF7FCFD074604E0FFF7F8FD89
:100E2000C01B022823D828688007F7D42078000741
:100E30002CD57948A169D9B1C0F80090FFF7E8FD39
:100E4000074604E0FFF7E4FDC01B02280FD8686ADC
:100E50008007F7D571484FF4FA510068B0FBF1F004
:100E6000009000BF0098411E0091FAD20EE080E091
:100E7000C0F80080FFF7CCFD074604E0FFF7C8FD8F
:100E8000C01B022875D8686A8007F7D4207840070D
:100E900060D5E8690027C00008D4E86940F08050B8
:100EA000E861E869012700F0805000905C48016823
:100EB000C90513D40168834641F480710160FFF7CE
:100EC000A7FD824606E000BFFFF7A2FDA0EB0A00E7
:100ED00064284ED8DBF80000C005F5D5E06801288D
:100EE0000AD008B1052813D0286A20F00100286232
:100EF000286A20F0040002E0286A40F0010028621D
:100F0000E06841F2883B98B1FFF782FD82460BE032
:100F1000286A40F004002862EEE700BFFFF778FD82
:100F2000A0EB0A0159455AD8286A8007F6D50CE08B
:100F3000FFF76EFD824605E0FFF76AFDA0EB0A01B0
:100F400059454CD8286A8007F6D41FB1E86920F0CB
:100F50008050E861E06988B36968C1F381010229C2
:100F600044D00228C6F8608004D0FFF751FD044643
:100F700038E034E0FFF74CFD074604E0FFF748FD9A
:100F8000C01B02282BD828688001F7D4206AB0F54E
:100F9000803F05D16868A16820F40030084368608C
:100FA000D4E908010843696821F4741108436860B2
:100FB000C6F86090FFF72CFD044606E025E000BF70
:100FC000FFF726FD001B022809D828688001F7D505
:100FD0001BE000BFFFF71CFD001B022802D9032005
:100FE000BDE8F88F28688001F4D40EE00128F7D01E
:100FF0006868226A00F48031914204D1616A00F489
:101000007010884201D00120EAE70020E8E70000E4
:101010000010024000004242800442420C000020C6
:1010200000700040704770B5040009D0606A002568
:1010300040B125616561A56294F8510040B10CE0B2
:10104000012070BD6068B0F5827FF4D0E561F2E701
:1010500084F85050204600F03FF8022084F85100F8
:101060002068016821F040010160A088218900F416
:10107000827001F404410843A18901F4006108432E
:10108000217C01F002010843217D01F001010843A8
:10109000218B01F400710843217F01F038010843DE
:1010A00094F8201001F080010843218D01F40051D3
:1010B000084321680860A069042101EA1040216802
:1010C00048602068C16921F40061C1616565012043
:1010D00084F85100002070BDF0B585B000240646AC
:1010E00000940194029403940068284988424BD1EB
:1010F0002748816941F480518161816901F48051FF
:101100000491816941F0040181618069214D00F001
:1011100004000490A020009002200190032003907E
:1011200069462846FFF76AFB4020CDE9000469467E
:1011300028460294FFF762FB184D17488027C5E93F
:101140000004C5E902472C616C61AC612846EC6182
:10115000FFF7B4FA08B1FFF7D0F8F5646E620F4DEF
:101160000D484435143001C5102091C50B4845F891
:10117000104944306C61AC61EC61FFF79FFA08B133
:10118000FFF7BBF8B5646E6205B0F0BD00300140FA
:1011900000100240000801401C0002406C000020CA
:1011A0002DE9F041044690F851000026354601280B
:1011B00001D002265FE0A068042318B96768B7F57C
:1011C000827F16D094F85070012F1BD0012784F82D
:1011D0005070D1B1CAB184F851306565A163A2875E
:1011E000E28725646564A586E586B0F5004F0ED0DC
:1011F00017E084F851302046BDE8F04113460A4616
:1012000000F058B80220BDE8F081012633E02068E4
:10121000016821F0400101602068016821F48041EB
:101220000160E16C1648C862E16C16488862E16CA6
:1012300015480863E06C4563E38F2168A26B0C31AD
:10124000E06CFFF779FA20B1606D40F01000606546
:10125000DBE720680168490603D4016841F04001DA
:1012600001602068416841F02001416020684168C8
:1012700041F00101416084F850503046C3E700005E
:10128000A11A0008BF1A00087F1A000801A000F088
:10129000A9BE000048414C5F5350495F52784370EB
:1012A0006C7443616C6C6261636B0D0A000000003A
:1012B000704700002DE9F041044690F850000026E8
:1012C00001280CD0012084F8500094F8510000252A
:1012D000676801280CD0B7F5827F07D102E00220B1
:1012E000BDE8F081A7680FB9042801D002265DE0AF
:1012F00049B342B33BB394F85100042802D005200F
:1013000084F8510065652163A386E386A263A38701
:10131000E3872564656494F85100042815D0E16CD6
:101320002448C8622448E16C8862E16C2348086361
:10133000E06C4563E38F2168A26B0C31E06CFFF732
:10134000FBF9E0B906E0012630E0E16C1C48C86218
:101350001C48E8E72068416841F001014160A06C49
:10136000C562A06C8562A06C0563A06C4563E38ECA
:101370002268216B0C32A06CFFF7DEF920B1606DA2
:1013800040F010006065DEE720680168490603D47C
:10139000016841F0400101602068416841F020018E
:1013A00041602068416841F00201416084F850507A
:1013B000304695E7B51A00088D1B00087F1A000813
:1013C000A11A0008BF1A000870B5044690F8500032
:1013D0000026012809D0012084F8500094F851001B
:1013E0000025012803D002264AE0022070BD89B101
:1013F00082B1032084F8510065652163A286E286EC
:10140000A56365642564A587E587A068B0F5004FEE
:1014100002D00BE0012633E02068016821F0400192
:1014200001602068016841F480410160A16C1648A8
:10143000C862A16C15488862A16C15480863A06C4D
:101440004563E38E2268216B0C32A06CFFF774F9C0
:1014500020B1606D40F010006065DBE72068016836
:10146000490603D4016841F04001016020684168E9
:1014700041F0200141602068416841F00201416073
:1014800084F85050304670BDAB1A0008291B000884
:101490007F1A000801A000F0A5BD000048414C5F84
:1014A0005350495F547843706C7443616C6C626153
:1014B000636B0D0A0000000070477047704710B55D
:1014C000401EB0F1807F01D3012010BD4FF0E02419
:1014D00060610F21601700F095FD0020A0610720DA
:1014E0002061002010BD704770470000F8B501680A
:1014F00004460868CA684B6910F00F0F4FF00005EA
:1015000059D003F0010602F49077374365D0C10744
:1015100005D0D10503D5616C41F00101616441073B
:1015200005D5D90703D0616C41F0020161648107E0
:1015300005D5D90703D0616C41F00401616401074E
:1015400007D502F02001314303D0616C41F008015E
:101550006164616C00293AD0800604D5900602D5FA
:10156000204600F03DFC20684069616CC0F38010AB
:10157000090700D460B3204600F00BFC20684069E6
:10158000400621D52068143050E8001F21F04001AA
:1015900040E80012002AF5D1E06BA8B16D49416323
:1015A000E06BFEF7CFFE002811D0E06B416B01B07D
:1015B000BDE8F040084783060FD593060DD52046B9
:1015C000BDE8F84000F00CBC2046FFF78DFFF8BDE9
:1015D0002046FFF789FF6564F8BD266B2023012EA6
:1015E0007CD1C6067AD5D60678D5086848680090BA
:1015F00048694FF00206400640D5E16B0868406834
:101600000004000CE8D0A28D8242E5D9E08588690B
:1016100020282DD020680C3050E8001F21F4807164
:1016200040E80012002AF5D12068143050E8001F6D
:1016300021F0010140E80012002AF5D120681430A1
:1016400050E8001F21F0400140E80012002AF5D1C7
:1016500084F84230256320680C3050E8001F21F0E8
:10166000100140E80012002AF5D1E06BFEF747FEBA
:101670006663A08DE18D401A81B22AE0A08DE18DD4
:10168000401A81B2E08D0028A6D00029A4D022689B
:101690000C3252E8000F20F4907042E80007002F4F
:1016A000F5D12068143050E8002F22F0010240E804
:1016B0000027002FF5D184F84230256320680C30D4
:1016C00050E8002F22F0100240E80023002BF5D153
:1016D00066632046FFF707FFF8BDFFE705062BD539
:1016E000150629D594F841002128F5D1A068B0F558
:1016F000805F01D12069B0B1206A411C216221685C
:1017000000784860E08C401E0004000CE084E3D1C7
:101710002068C16821F08001C1602068C16841F083
:101720004001C160D8E7206A0088C0F30800486023
:10173000206A801C2062E5E74006CDD55006CBD557
:10174000CA68204622F04002CA6084F8413000F0A6
:10175000C3F8C1E7831D000870B5040004D094F8F5
:101760004100002510B106E0012070BD84F8405012
:10177000204600F023F8242084F841002068C16846
:1017800021F40051C160204600F08CFB2068016903
:1017900021F4904101612068416921F02A014161F1
:1017A0002068C16841F40051C1606564202084F85C
:1017B000410084F842006563002070BD30B585B0FB
:1017C000002400940194029403940068184988420C
:1017D0002CD11848816941F480418161816901F40B
:1017E00080410491816941F0040181618069124D59
:1017F00000F0040004904FF400700090022001906B
:101800000320039069462846FEF7F8FF2815CDE926
:101810000004694628460294FEF7F0FF00221146B4
:101820002520FFF761F92520FFF750F905B030BDFD
:1018300000380140001002400008014070472DE9C7
:10184000F843044690F841001F4616460D462028EE
:1018500002D00220BDE8F8837DB176B1002060643B
:10186000212084F84100FFF7D3F8A6848046E6845F
:10187000A068B0F5805F02D003E00120EAE72069AC
:1018800010B12E4600250EE000260CE080212046F7
:1018900000F064FBA0B9AEB116F8010B21684860F6
:1018A000E08C401EE084E08C43464FF0000200973D
:1018B0000028EBD14FF04001204600F04FFB30B143
:1018C0000320C7E735F8020BC0F30800E6E7202045
:1018D00084F841000020BDE77047FEE70D4808B5D9
:1018E000416941F0010141614069002200F00100BD
:1018F000009011460C20FFF7F7F80C20FFF7E6F8F0
:10190000002211460D20FFF7EFF8BDE808400D203A
:10191000FFF7DCB8001002402DE9F04385B0002449
:1019200030480094019402940394816941F01001BD
:101930008161816901F010010491816941F0040124
:101940008161816901F004010491816941F008011C
:1019500081618069DFF8908000F008000122049026
:1019600011464046FFF74EF8DFF880900122232110
:101970004846FFF747F81E4E4FF40050CDE90006E9
:10198000694602944046FEF739FF01250227039776
:101990000095CDE9015469464046FEF72FFF0095BA
:1019A000CDE9016469461348FEF728FF2320CDE9FD
:1019B0000005CDE9024769464846FEF71FFF0022B1
:1019C00011460620FFF790F80620FFF77FF8002267
:1019D00011462820FFF788F82820FFF777F805B090
:1019E000BDE8F0830010024000100140000C0140EF
:1019F0000000111000080140104810B50E490160A8
:101A00004FF482714160002102228160C0E903121B
:101A100001224261520282611822C0E9072141621B
:101A200081620A21C162FFF7FEFA002803D0BDE8F7
:101A30001040FEF762BC10BD0030014014000020D1
:101A40000C4810B50A4901604FF4E13141600021B2
:101A500081600C22C160C0E904128161C161FFF79D
:101A60007BFE002803D0BDE81040FEF746BC10BD49
:101A700000380140F4000020FEE7FEE7704710B593
:101A8000406A01684A6822F003024A60416D41F0F1
:101A900010014165012180F85110FFF7C3FA10BD14
:101AA00010B5406AFFF704FC10BD10B5406AFFF79F
:101AB00003FD10BD10B5406AFFF700FD10BD70B505
:101AC0000546446AFEF7A4FF0246286800688006BF
:101AD00026D42068416821F020014160A06818B92F
:101AE0006068B0F5827F16D02068416821F001015E
:101AF00041606421204600F076F808B1202060653E
:101B00000020E087012084F85100606D40B120463C
:101B1000FFF788FA70BD2068416821F00301E7E70C
:101B20002046FFF7B3FB70BD38B50546446AFEF7A3
:101B30006FFF024628680068800623D42068416849
:101B400021F0200141602068416821F002014160DC
:101B50006421204600F075F818B1606D40F0200057
:101B60006065A068002118B92068C268806800908C
:101B7000E186012084F85100606D18B12046FFF71E
:101B800051FA38BD2046FFF785FC38BD70B50546D3
:101B9000446AFEF73DFF02462868006880061ED4AE
:101BA0002068416821F0200141606421204600F056
:101BB00048F818B1606D40F0200060652068416809
:101BC00021F0030141600020E086E087012084F8D5
:101BD0005100606D18B12046FFF724FA70BD204611
:101BE000FFF76BFC70BDF8B5044640684FF4827394
:101BF000984217D1A0684FF48065B0F5004F01D02E
:101C0000A8420FD12068066826F04006066060688A
:101C1000984207D1A068A84204D100920B46002246
:101C2000012103E000920B4600228021204600F0B3
:101C300019F8002804D0606D40F020006065032092
:101C4000F8BD38B50B46009204460022802100F012
:101C500009F8002804D0606D40F020006065032082
:101C600038BD00002DE9F8431E46914688460446DB
:101C7000089DFEF7CDFE401B351AFEF7C9FE07464C
:101C800025480068C0F3CB30684338E0701C37D07B
:101C9000FEF7BEFEC01BA84203D215B1009860B388
:101CA0002CE02068416821F0E00141606068B0F5F7
:101CB000827F0BD1A068B0F5004F02D0B0F5806FE5
:101CC00004D12068016821F040010160A06AB0F5EC
:101CD000005F09D12068016821F40051016020688B
:101CE000016841F400510160012084F85100002096
:101CF00084F850000320BDE8F8830025401E0090C2
:101D00002068816838EA010004D000214945BDD12E
:101D10000020F0E70121F9E70C0000207047FEF7F2
:101D20007DBE30B58FB028216846FEF736FA142103
:101D30000AA8FEF732FA01210804CDE900100024B8
:101D4000029402250491CDE907504FF4E010099068
:101D50006846FEF7D7FF08B172B6FEE70F20CDE95F
:101D60000A054FF48060CDE90C4002210AA80E94C8
:101D7000FEF7ECFE002801D072B6FEE70FB030BDD2
:101D8000704710B5406A0021C185C184FFF7ACFBE4
:101D900010BD01680C3151E8002F22F4907241E827
:101DA0000023002BF5D10168143151E8002F22F0F7
:101DB000010241E80023002BF5D1016B012909D173
:101DC00001680C3151E8002F22F0100241E8002395
:101DD000002BF5D1202180F84210002101637047CB
:101DE00008B590F84210222901D0022008BD82686F
:101DF0004FF480539A4201D1016921B1816A9A421C
:101E00001BD04AB10AE00268816A5268C2F3080234
:101E10000A80816A891C08E0026972B1026852680E
:101E200002F07F020A70816A491C8162C18D491EDD
:101E30000904090CC18503D01BE002685268F1E770
:101E40000168CA6822F02002CA600168CA6822F4E8
:101E50008072CA6001684A6922F001024A61202149
:101E600080F8421000214163026B012A03D0FFF782
:101E7000E5FC002008BD016301680C3151E8002F2A
:101E800022F0100241E80023002BF5D101680A6816
:101E9000D20602D50A6849680091818DFFF723FBBD
:101EA000E7E7000070B5044600680169E26821F4C4
:101EB0004051114301612169A068084361690843E9
:101EC0002168CA6841F20C639A430243CA602068E1
:101ED0004169A26921F44071114341611E492068A2
:101EE000884202D1FEF7D8FE01E0FEF7C5FE00EB06
:101EF000C00101EB0012606864218000B2FBF0F3C6
:101F0000B3FBF1F36FF018067343B2FBF0F5B2FBCD
:101F1000F0F605EB8305322303EB0515B5FBF1F570
:101F2000B6FBF1F605F0F00505EB0615B2FBF0F691
:101F3000B2FBF0F0B0FBF1F06FF01802504306EB8B
:101F4000800003EB0010B0FBF1F0216800F00F00FF
:101F50002844886070BD0000003801402DE9F04140
:101F6000984617460E460446069D27E0681C25D075
:101F70002DB1FEF74DFDA0EB0800A8421ED9206848
:101F80000C3050E8001F21F4D07140E80012002A04
:101F9000F5D12068143050E8001F21F0010140E81D
:101FA0000012002AF5D1202084F8410084F8420074
:101FB000002084F840000320BDE8F081206800681C
:101FC00036EA000004D00020B842CFD00020F3E76A
:101FD0000120F9E70148FFF789BA0000F40000206A
:101FE000FEE700000FB4054B10B503A9044A0298A0
:101FF00000F028F810BC5DF814FB00000523000871
:10200000100000200907090E002804DB00F1E02081
:1020100080F80014704700F00F0000F1E02080F815
:10202000141D704702E008C8121F08C1002AFAD127
:1020300070477047002001E001C1121F002AFBD148
:10204000704700002DE9FF4F8DB09B460F460446B8
:10205000002606E025280BD05A460F999047641CAD
:10206000761C20780028F5D111B03046BDE8F08FFD
:102070000025A8460122984900E0054314F8013FD5
:10208000203B02FA03F00842F7D120782E2817D11E
:1020900014F8010F45F004052A280ED06FF02F0226
:1020A0002078A0F1300109290AD808EB880102EB59
:1020B000410100EB0108641CF2E757F8048B641C33
:1020C00020786C280DD004DC4C2812D06A2811D15D
:1020D00004E074280DD07A280CD10AE045F40015EC
:1020E00007E0617845F48015814202D1641C05F552
:1020F0008015641C2078692844D008DC0028B3D0FF
:10210000582867D063280FD0642808D13AE0702897
:1021100065D0732812D075285AD078285AD05A46DC
:102120000F999047761CD5E017F8040B8DF8000046
:1021300000208DF80100E946012003E057F8049BD8
:102140004FF0FF3069074FF0000501D40AE06D1C25
:1021500045450DDA8542FADB19F805100029F6D15C
:1021600006E06D1C8542FCDB19F805100029F8D14A
:102170002E4404E019F8010B5A460F9990476D1E42
:10218000F8D2A7E00A200021CDE90801C5F30250EA
:1021900002280CD001CFC117021E71F100020CDA27
:1021A0000023D0EB030063EB01012D2208E0FF1DAB
:1021B00027F00707F7E80201EEE72A0504D52B22EE
:1021C0008DF8282001223CE0EA073AD02022F7E7E8
:1021D0000A2000E010200021CDE9080107E01020CE
:1021E000002145F00405CDE908014FF00808C5F3CA
:1021F0000250022810D001CF00214FF0000A2A0718
:1022000020D52278702A0DD0DDE908C38CF0100C9F
:102210005CEA030C0CD015E0FF1D27F00707F7E878
:102220000201EAE740228DF828204FF0010A0CE075
:1022300050EA010306D030238DF828308DF829208C
:10224000022292462278582A04D024A20DF12009B5
:102250000B9209E026A2F9E7DDE90823FDF7A8FFC4
:102260000B9B9B5C09F8013D50EA0102F4D1ADEBF8
:10227000090020300890680701D44FF00108089940
:10228000884503DD0898A8EB000000E000208046A8
:10229000002506E00AA85A46405D0F9990476D1C3C
:1022A000761C5545F6DB04E030205A460F999047DE
:1022B000761CB8F10001A8F10108F5DC05E019F879
:1022C000010B5A460F999047761C0899481E0890B2
:1022D0000029F4DC641CC4E60928010030313233E3
:1022E0003435363738396162636465660000000052
:1022F000303132333435363738394142434445463C
:102300000000000013B54FF47A73012269460248B9
:10231000FFF795FA00981CBDF4000020FEF786FB3D
:10232000FFF7FFFCFFF7F8FAFFF7D8FAFFF788FB93
:10233000FFF762FB02A0FFF755FE00F01FF8FEE773
:102340005374617274207573617274312054582013
:10235000616E642052582E2E2E0D0A00002201219B
:102360000148FEF74FBB000000100140012211465A
:102370000148FEF747BB0000001001401CB50020DB
:1023800000909F208DF80400FFF7E8FF012201A9CB
:102390000B48FFF719F8032269460948FEF700FFCA
:1023A0004FF4FA60FEF700FAFFF7E0FF9DF8023005
:1023B0009DF801209DF8001002A0FFF713FE1CBD40
:1023C000140000206A6964203D20307825782C3084
:1023D0007825782C307825780D0A00000102020358
:1023E0000405060708090A0B0C0D0E0F101000005B
:1023F00000000000000001020304060708090000B5
:10240000000001020304000028240008000000204E
:1024100014000000242000083C24000814000020C0
:102420002C0500003420000801000000100000000E
:0C243000000000000024F4000000000088
:0400000508000131BD
:00000001FF
