:020000040800F2
:10000000B8040020490100082B160008C714000896
:100010002916000857020008FD1C00080000000017
:10002000000000000000000000000000391A000875
:1000300059020008000000002D1600083B1A0008B5
:100040006301000863010008630100086301000800
:1000500063010008630100085B02000863010008F7
:1000600063010008630100086301000863010008E0
:1000700063010008630100086301000863010008D0
:1000800063010008630100086301000863010008C0
:1000900063010008630100086301000863010008B0
:1000A00063010008630100086301000863010008A0
:1000B0006301000863010008630100086301000890
:1000C000630100086301000863010008311600089D
:1000D00063010008F11C00086301000863010008C7
:1000E0006102000863010008630100086301000861
:1000F0006301000863010008630100086301000850
:10010000630100086301000863010008630100083F
:10011000630100086301000863010008630100082F
:10012000630100086301000863010008630100081F
:10013000DFF810D000F06EF80048004739200008C2
:10014000AFF30080B8040020064880470648004707
:10015000FEE7FEE7FEE7FEE7FEE7FEE7FEE7FEE777
:10016000FEE7FEE79D1A000831010008202A04DBA3
:10017000203A21FA02F00021704721FA02F3D04020
:10018000C2F120029140084319467047D2B201E003
:1001900000F8012B491EFBD270470022F6E710B58C
:1001A00013460A4604461946FFF7F0FF204610BDE5
:1001B0002DE9F05F0546002092469B46884606469C
:1001C000814640241BE02846414647462246FFF729
:1001D000CDFF53465A46C01A914110D311461846D6
:1001E000224600F029F82D1A67EB01084F462246F7
:1001F0000120002100F020F817EB00094E41201EDD
:10020000A4F10104DFDC484631462A464346BDE8F6
:10021000F09F0000064C074D06E0E06840F0010347
:1002200094E8070098471034AC42F6D3FFF784FFF8
:100230002821000848210008202A04DB203A00FA7F
:1002400002F1002070479140C2F1200320FA03F32D
:10025000194390407047FEE77047012000F0E0B876
:100260004FF4005000F0DCB872B6FEE710B590F81D
:1002700021100022022905D00421816380F820206A
:10028000012010BD01680B6823F00E030B600168AC
:100290000B6823F001030B6090F84030C46B012120
:1002A00001FA03F3636080F8211080F820201046E3
:1002B00010BD00002DE9F05F90F821100024022904
:1002C00003D004218163012485E001680A6822F0DB
:1002D0000E020A6001680A6822F001020A603F4EBD
:1002E0003E4FB215DFF8F4C0DFF8F090DFF8ECA075
:1002F000DFF8E8B0DFF8E4E00168783F13011502A9
:10030000ACF1640CA9F15009AAF13C0AABF1280B3D
:10031000AEF1140E4FF48018B14227D9B9420ED075
:10032000614512D049451DD0514518D0594518D0C6
:10033000714501D1424615E0294EB14201D1012259
:1003400010E0274E1436B14201D110220AE0244EAB
:100350002836B14206D0224A3C32914201D11A4697
:1003600000E02A461E49091F0A602BE0B94213D05B
:10037000614517D0494522D051451DD059451DD062
:10038000714501D142461AE0B14202D14FF080726C
:1003900015E0134EB14201D1012210E0104E143687
:1003A000B14201D110220AE00D4E2836B14206D0EA
:1003B0000B4A3C32914201D11A4600E02A460749D5
:1003C00080394A60012180F82110002180F8201036
:1003D000416B01B188472046BDE8F09F8000024094
:1003E0000804024070B5044600F030F90546601C70
:1003F00002D004480078044400F028F9401BA042D1
:10040000FAD370BD00000020012802D0B0F5005FD3
:1004100003D12321014800F00BB97047000C0140C3
:10042000044910B50A68024202D00860FFF7ECFFE9
:1004300010BD0000140401402DE9F84FDFF8C89109
:100440000024A9F1040B23460F2709F1040AABF19C
:10045000040ED1E00125A54006EA0502AA4276D1A4
:10046000DFF8A8C14E68A6EB0C0866452BD00DDC62
:10047000032E34D005DC36B3012E19D0022E2FD135
:100480001BE0112E16D0122E2AD119E0B8F5881FC4
:1004900019D006DCB8F5803F15D0B8F5801F1FD104
:1004A00011E0B8F5001F0ED0B8F5041F18D10AE00E
:1004B000CB6815E0CB681B1D12E0CB6808330FE05A
:1004C000CB680C330CE08B682BB1012B4FF0080389
:1004D00003D0456104E0042302E0056100E000234D
:1004E000FF2A01D8064601E000F104064FEA840520
:1004F00001D9A5F12005D6F8008007FA05FC28EA05
:100500000C0803FA05F548EA0508C6F800804D68AE
:10051000ED0070D53E4DAE6946F00106AE61AD69A5
:1005200024F0030605F0010500953A4D06EB050C95
:10053000DCF80850A607360F07FA06F825EA080582
:10054000DFF8D480404503D14FF0000825E052E0A9
:10055000DFF8C880404502D14FF001081DE0DFF808
:10056000C080404502D14FF0020816E0DFF8B480A9
:10057000404502D14FF003080FE0DFF8AC80404562
:1005800002D14FF0040808E0DFF8A080404502D116
:100590004FF0050801E04FF0060808FA06F848EAAF
:1005A0000508CCF808804D68D9F80060ED024D468A
:1005B00001D5164300E096432E604D68DAF80060DE
:1005C000AD02554601D5164300E096432E604D68B6
:1005D000DBF80060AD035D4601D5164300E09643AD
:1005E0002E604D68DEF80060ED03754601D51643B8
:1005F00000E096432E60641C0A681646E2407FF4D1
:1006000029AFBDE8F88F0000080401400000111078
:10061000001002400000014000080140000C0140B1
:10062000001001400014014000180140001C01406E
:10063000C26821EA02030A4043EA024101617047AD
:100640000AB1016170470904FBE7000001488068B6
:1006500070470000000000200248816802781144C1
:100660008160704700000020074810B5016841F024
:1006700010010160032000F075F80F2000F006F86B
:1006800000F024F8002010BD0020024070B50D4D90
:1006900004464FF47A712878B1FBF0F00A490968F2
:1006A000B1FBF0F000F001FD48B9102C07D2002298
:1006B0002146501E00F036F800206C6070BD01200D
:1006C00070BD0000000000200C0000200C4808B5A0
:1006D000816941F001018161816901F001010091AD
:1006E000C16941F08051C161C06900F08050009043
:1006F0000448416821F0E06141F00071416008BDAB
:100700000010024000000140002809DB00F01F0239
:10071000012191404009800000F1E020C0F8001163
:1007200070470000F0B40E4B1B680C46C3F3022365
:10073000C3F10705042D00D90425191D072901D28D
:10074000002300E0DB1E012606FA05F1491E2140C8
:1007500099409E40761E16403143F0BC01F0E0BA4D
:100760000CED00E0064900F0070208684FF6FF03B1
:10077000184040EA0220034A104308607047000016
:100780000CED00E00000FA052DE9F0470F460500EA
:1007900061D0434E306800F00700B84209D230689B
:1007A00020F0070038433060306800F00700B8429E
:1007B00051D128683B4C810712D5400703D56068AA
:1007C00040F4E06060602878000703D5606840F47A
:1007D000605060606068A96820F0F00008436060C5
:1007E0002878C00728D06868012810D0216802281E
:1007F00010D0890700292EDA616821F00301014336
:100800006160FFF723FF804641F288390DE02168DF
:100810008903EFE78901EDE7FFF718FFA0EB080177
:10082000494502D90320BDE8F0876068696800F097
:100830000C00B0EB810FEFD1306800F00700B84238
:100840000BD9306820F0070038433060306800F082
:100850000700B84201D00120E5E72878400705D518
:100860006068E96820F4E060084360602878000769
:1008700006D56068296920F4605040EAC1006060D4
:1008800000F038F86168084AC1F30311515CC840B0
:100890000649086006480068FFF7F8FE0020C2E736
:1008A00000200240001002400E2100080C00002031
:1008B000040000200448054900684968044AC1F35F
:1008C0000221515CC84070470C000020001002401B
:1008D0001E2100080448054900684968044AC1F31C
:1008E000C221515CC84070470C000020001002403B
:1008F0001E2100080E4A51680E4801F00C03042B1B
:1009000011D0082B0FD10C48C1F38343C903C05C3D
:100910000AD55168084AC1F34041921E515C054A0C
:100920005043B0FBF1F07047044948437047000062
:100930000010024000127A00FE20000800093D006D
:100940002DE9F84F040070D02078C04DC00749D081
:100950006868C0F38100012807D06868C0F381008F
:10096000022809D16868C00306D52868800339D5F4
:1009700060680028E7D035E06068B0F5803F0BD0B4
:1009800010B1B0F5A02F11D0286820F48030286075
:10099000286820F4802002E0286840F48030286035
:1009A000606890B1FFF752FE06460AE0286840F4FE
:1009B00080202860F0E700BFFFF748FE801B642816
:1009C00073D828688003F7D50CE0FFF73FFE064692
:1009D00005E000BFFFF73AFE801B6428F0D82868C6
:1009E0008003F7D420789A4E80074FF001094FF02A
:1009F000000839D5686810F00C0F07D06868C0F39C
:100A00008100022809D16868C00306D428688007DD
:100A100014D52069012808D110E02069B0B1C6F8CA
:100A20000090FFF713FE074605E00AE1FFF70EFE10
:100A3000C01B0228C4D828688007F7D528686169D8
:100A400020F0F80040EAC10028600DE0C6F8008000
:100A5000FFF7FCFD074604E0FFF7F8FDC01B022886
:100A600023D828688007F7D4207800072CD5794848
:100A7000A169D9B1C0F80090FFF7E8FD074604E08E
:100A8000FFF7E4FDC01B02280FD8686A8007F7D57E
:100A900071484FF4FA510068B0FBF1F0009000BFCC
:100AA0000098411E0091FAD20EE080E0C0F800806C
:100AB000FFF7CCFD074604E0FFF7C8FDC01B022886
:100AC00075D8686A8007F7D42078400760D5E86950
:100AD0000027C00008D4E86940F08050E861E86968
:100AE000012700F0805000905C480168C90513D4CC
:100AF0000168834641F480710160FFF7A7FD8246DB
:100B000006E000BFFFF7A2FDA0EB0A0064284ED864
:100B1000DBF80000C005F5D5E06801280AD008B16F
:100B2000052813D0286A20F001002862286A20F0E6
:100B3000040002E0286A40F001002862E06841F207
:100B4000883B98B1FFF782FD82460BE0286A40F0AF
:100B500004002862EEE700BFFFF778FDA0EB0A0172
:100B600059455AD8286A8007F6D50CE0FFF76EFD84
:100B7000824605E0FFF76AFDA0EB0A0159454CD813
:100B8000286A8007F6D41FB1E86920F08050E86138
:100B9000E06988B36968C1F38101022944D0022861
:100BA000C6F8608004D0FFF751FD044638E034E019
:100BB000FFF74CFD074604E0FFF748FDC01B022885
:100BC0002BD828688001F7D4206AB0F5803F05D182
:100BD0006868A16820F4003008436860D4E908011F
:100BE0000843696821F4741108436860C6F860908E
:100BF000FFF72CFD044606E025E000BFFFF726FDC9
:100C0000001B022809D828688001F7D51BE000BF27
:100C1000FFF71CFD001B022802D90320BDE8F88F56
:100C200028688001F4D40EE00128F7D06868226AB1
:100C300000F48031914204D1616A00F4701088425E
:100C400001D00120EAE70020E8E7000000100240A0
:100C500000004242800442420C000020007000402C
:100C60007047000038B50446006842688168C9438F
:100C70004B0606D5CB0704D1D3435B0601D4216CC8
:100C800005E08B0708D4D3431B0605D4616C01B083
:100C90002046BDE8304008478B0601D54B0646D4B8
:100CA000D3439B0643D44B060AD494F85130032B0C
:100CB0003ED0636D43F004036365C36883680093AB
:100CC000890609D4616D41F0010161658168009177
:100CD000016821F040010160606D002827D0206884
:100CE000416821F0E0014160012084F85100900743
:100CF00022D02068416821F003014160104DE06C72
:100D000040B14563E06CFFF7D5FA18B1606D40F073
:100D100040006065A06C002809D04563A06CFFF717
:100D2000C9FA002803D0606D40F04000606538BD0E
:100D3000C1688068009038BD2046FFF791FF38BD3C
:100D40007518000870B5040009D0606A002540B12C
:100D500025616561A56294F8510040B10CE0012065
:100D600070BD6068B0F5827FF4D0E561F2E784F889
:100D70005050204600F040F8022084F851002068CE
:100D8000016821F040010160A088218900F482708F
:100D900001F404410843A18901F400610843217C66
:100DA00001F002010843217D01F001010843218B7C
:100DB00001F400710843217F01F03801084394F8E1
:100DC000201001F080010843218D01F400510843F7
:100DD00021680860A069042101EA10402168486088
:100DE0002068C16921F40061C1616565012084F852
:100DF0005100002070BD000030B585B00024009483
:100E00000194029403940068184988422BD1184831
:100E1000816941F480518161816901F480510491BB
:100E2000816941F0040181618069124D00F0040084
:100E30000490A020009002200190032003906946B6
:100E40002846FFF7F9FA4020CDE900046946284614
:100E50000294FFF7F1FA002211462320FFF762FC0B
:100E60002320FFF751FC05B030BD000000300140E9
:100E70000010024000080140F0B490F851501346B1
:100E800000242246012D01D0022444E08568042676
:100E90001DB94768B7F5827F16D090F85070012FC2
:100EA00018D0012780F85070B9B1B3B180F8516003
:100EB000426581638387C38702638286C2864264F8
:100EC000C16861B116490BE080F85160F0BC0A4678
:100ED00000F03CB80220F0BC704701241BE011492F
:100EE0000164B5F5004F09D101680B6823F0400398
:100EF0000B6001680B6823F480430B6001684B684A
:100F000043F060034B6001680B685B0603D40B6819
:100F100043F040030B6080F850202046DBE70000E0
:100F2000011900082119000801A000F0E9BE000025
:100F300048414C5F5350495F527843706C74436131
:100F40006C6C6261636B0D0A00000000F0B590F8F4
:100F500050500024012D0CD0012580F8505090F8FD
:100F6000515000264768012D0BD0B7F5827F06D17E
:100F700001E00220F0BD87680FB9042D01D00224E2
:100F800029E0A9B1A2B19BB190F85150042D02D033
:100F9000052580F85150466501638386C3868263C8
:100FA0008387C387C16829B10D4901640D4904E0F5
:100FB000012410E00C4901640C49416401684A684D
:100FC00042F0E0024A6001680A68520603D40A68E7
:100FD00042F040020A6080F850602046F0BD0000F8
:100FE0005D160008BD1600088D160008ED160008F5
:100FF00030B590F850300024012B0BD0012380F83D
:101000005030002341B13AB190F85150012D05D034
:1010100002242FE0022030BD01242BE0032580F8BC
:101020005150436501638286C28683638387C38789
:101030000364C16809B1114900E011494164816844
:10104000B1F5004F09D101680A6822F040020A6038
:1010500001680A6842F480420A6001684A6842F006
:10106000A0024A6001680A68520603D40A6842F086
:1010700040020A6080F85030204630BD4119000817
:101080006119000801A000F03BBE000048414C5F20
:101090005350495F547843706C7443616C6C626167
:1010A000636B0D0A00000000704710B5401EB0F1E0
:1010B000807F01D3012010BD4FF0E02460610F213B
:1010C000601700F02DFE0020A061072020610020A5
:1010D00010BD704770470000F8B501680446086805
:1010E000CA684B6910F00F0F4FF0000559D003F09C
:1010F000010602F49077374365D0C10705D0D105CA
:1011000003D5616C41F001016164410705D5D90740
:1011100003D0616C41F002016164810705D5D907F4
:1011200003D0616C41F004016164010707D502F04E
:101130002001314303D0616C41F008016164616CAE
:1011400000293AD0800604D5900602D5204600F04A
:10115000D5FC20684069616CC0F38010090700D499
:1011600060B3204600F0A3FC20684069400621D50A
:101170002068143050E8001F21F0400140E80012C0
:10118000002AF5D1E06BA8B16D494163E06BFFF730
:1011900091F8002811D0E06B416B01B0BDE8F04040
:1011A000084783060FD593060DD52046BDE8F840C5
:1011B00000F0A4BC2046FFF78DFFF8BD2046FFF7E6
:1011C00089FF6564F8BD266B2023012E7CD1C606FD
:1011D0007AD5D60678D508684868009048694FF0F7
:1011E0000206400640D5E16B086840680004000C28
:1011F000E8D0A28D8242E5D9E085886920282DD0EB
:1012000020680C3050E8001F21F4807140E8001283
:10121000002AF5D12068143050E8001F21F00101A8
:1012200040E80012002AF5D12068143050E8001F71
:1012300021F0400140E80012002AF5D184F8423044
:10124000256320680C3050E8001F21F0100140E8B1
:101250000012002AF5D1E06BFFF708F86663A08D55
:10126000E18D401A81B22AE0A08DE18D401A81B251
:10127000E08D0028A6D00029A4D022680C3252E8C4
:10128000000F20F4907042E80007002FF5D120688D
:10129000143050E8002F22F0010240E80027002F10
:1012A000F5D184F84230256320680C3050E8002FD7
:1012B00022F0100240E80023002BF5D1666320469F
:1012C000FFF707FFF8BDFFE705062BD5150629D563
:1012D00094F841002128F5D1A068B0F5805F01D1D4
:1012E0002069B0B1206A411C216221680078486001
:1012F000E08C401E0004000CE084E3D12068C1684B
:1013000021F08001C1602068C16841F04001C160E6
:10131000D8E7206A0088C0F308004860206A801C73
:101320002062E5E74006CDD55006CBD5CA682046F9
:1013300022F04002CA6084F8413000F0C3F8C1E7EF
:101340009F1A000870B5040004D094F841000025ED
:1013500010B106E0012070BD84F84050204600F036
:1013600023F8242084F841002068C16821F400514A
:10137000C160204600F024FC2068016921F49041FE
:1013800001612068416921F02A0141612068C1683A
:1013900041F40051C1606564202084F8410084F864
:1013A00042006563002070BD30B585B00024009414
:1013B0000194029403940068184988422CD118487B
:1013C000816941F480418161816901F48041049126
:1013D000816941F0040181618069124D00F00400CF
:1013E00004904FF4007000900220019003200390BD
:1013F00069462846FFF720F82815CDE9000469461C
:1014000028460294FFF718F8002211462520FFF71E
:1014100089F92520FFF778F905B030BD0038014083
:10142000001002400008014070472DE9F8430446CF
:1014300090F841001F4616460D46202802D0022093
:10144000BDE8F8837DB176B100206064212084F886
:101450004100FFF7FBF8A6848046E684A068B0F55B
:10146000805F02D003E00120EAE7206910B12E4638
:1014700000250EE000260CE08021204600F0FCFB59
:10148000A0B9AEB116F8010B21684860E08C401E8F
:10149000E084E08C43464FF0000200970028EBD137
:1014A0004FF04001204600F0E7FB30B10320C7E7D2
:1014B00035F8020BC0F30800E6E7202084F841006D
:1014C0000020BDE77047FEE72DE9F04385B000241A
:1014D00030480094019402940394816941F0100112
:1014E0008161816901F010010491816941F0040179
:1014F0008161816901F004010491816941F0080171
:1015000081618069DFF8908000F00800012204907A
:1015100011464046FFF794F8DFF88090012223211E
:101520004846FFF78DF81E4E4FF40050CDE90006F7
:10153000694602944046FEF77FFF01250227039784
:101540000095CDE9015469464046FEF775FF0095C8
:10155000CDE9016469461348FEF76EFF2320CDE90B
:101560000005CDE9024769464846FEF765FF0022BF
:1015700011460620FFF7D6F80620FFF7C5F800222F
:1015800011462820FFF7CEF82820FFF7BDF805B058
:10159000BDE8F0830010024000100140000C014043
:1015A0000000111000080140104810B50E490160FC
:1015B0004FF482714160002102228160C0E9031270
:1015C00001224261520282611822C0E90721416270
:1015D00081620A21C162FFF7B5FB002803D0BDE894
:1015E0001040FEF741BE10BD003001401400002045
:1015F0000C4810B50A4901604FF4E1314160002107
:1016000081600C22C160C0E904128161C161FFF7F1
:1016100099FE002803D0BDE81040FEF725BE10BD9E
:10162000003801406C000020FEE7FEE77047000034
:1016300010B504A000F064FBBDE810400648FFF7B9
:1016400011BB0000535049315F49525148616E64EB
:101650006C65720D0A000000140000200168C96862
:10166000826B1180816B891C8163C18F491EC18788
:10167000C18F002909D101684A6822F040024A60FE
:10168000C18E002901D100F049B870470168097B7B
:10169000826B1170816B491C8163C18F491EC187A8
:1016A000C18F002909D101684A6822F060024A60AE
:1016B000C18E002901D100F031B87047016B02687A
:1016C0000988D160016B891C0163C18E491EC186E6
:1016D000C18E002909D101684A6822F080024A605F
:1016E000C18F002901D100F019B87047016B026861
:1016F00009781173016B491C0163C18E491EC186B3
:10170000C18E002909D101684A6822F080024A602E
:10171000C18F002901D100F001B8704738B50446E7
:10172000214845F6C0510068B0FBF1F06421484300
:101730000090FEF78BFF02462068416821F02001EF
:101740004160009888B1401E009020688068800742
:10175000F7D56421204600F0C3F818B1606D40F061
:1017600020006065A06828B108E0606D40F02000AE
:101770006065EEE72068C16880680090616D0120B7
:1017800029B184F851002046FFF76AFA38BD94F871
:10179000511084F851000429204602D0FFF784FC40
:1017A00038BDFFF7C1FB38BD0C00002038B504463A
:1017B0000068416821F060014160FEF747FF024682
:1017C0006421204600F05EF818B1606D40F0200002
:1017D0006065A06818B92068C16880680090012021
:1017E00084F85100606D0028204602D0FFF738FAD7
:1017F00038BDFFF799FB38BD38B504461C4845F69F
:10180000C0510068B0FBF1F0642148430090FEF73E
:101810001DFF024620680099A1B1491E0091816810
:101820008907F8D5416821F0A00141606421204674
:1018300000F056F818B1606D40F020006065A068B7
:1018400028B108E0616D41F020016165EAE7206898
:10185000C16880680090012084F85100606D002804
:10186000204602D0FFF7FCF938BDFFF70BFC38BD6E
:101870000C00002010B5406A0021C187C186FFF727
:10188000EFF910BDF8B5044640684FF482739842F2
:1018900017D1A0684FF48065B0F5004F01D0A84281
:1018A0000FD12068066826F04006066060689842FE
:1018B00007D1A068A84204D100920B460022012162
:1018C00003E000920B4600228021204600F058F8E9
:1018D000002804D0606D40F0200060650320F8BD52
:1018E00038B50B46009204460022802100F048F8EB
:1018F000002804D0606D40F020006065032038BDF2
:101900000168C968826B1180816B891C8163C18FFA
:10191000491EC187C18F002901D1FFF747BF70471A
:101920000168097B826B1170816B491C8163C18FD7
:10193000491EC187C18F002901D1FFF737BF70470A
:10194000016B02680988D160016B891C0163C18E3B
:10195000491EC186C18E002901D1FFF74DBF7047D6
:10196000016B026809781173016B491C0163C18E18
:10197000491EC186C18E002901D1FFF73DBF7047C6
:101980002DE9F8431E46914688460446089DFEF719
:101990005DFE401B351AFEF759FE074625480068D4
:1019A000C0F3CB30684338E0701C37D0FEF74EFEF2
:1019B000C01BA84203D215B1009860B32CE0206888
:1019C000416821F0E00141606068B0F5827F0BD191
:1019D000A068B0F5004F02D0B0F5806F04D1206848
:1019E000016821F040010160A06AB0F5005F09D1F3
:1019F0002068016821F4005101602068016841F409
:101A000000510160012084F85100002084F850004A
:101A10000320BDE8F8830025401E009020688168FF
:101A200038EA010004D000214945BDD10020F0E78B
:101A30000121F9E70C0000207047FEF70DBE30B51C
:101A40008FB028216846FEF7A8FB14210AA8FEF7EC
:101A5000A4FB01210804CDE9001000240294022512
:101A60000491CDE907504FF4E01009906846FEF765
:101A700067FF08B172B6FEE70F20CDE90A054FF403
:101A80008060CDE90C4002210AA80E94FEF77CFE8E
:101A9000002801D072B6FEE70FB030BD704710B518
:101AA000406A0021C185C184FFF714FB10BD0168A5
:101AB0000C3151E8002F22F4907241E80023002BF2
:101AC000F5D10168143151E8002F22F0010241E8FC
:101AD0000023002BF5D1016B012909D101680C31DC
:101AE00051E8002F22F0100241E80023002BF5D12D
:101AF000202180F8421000210163704708B590F85A
:101B00004210222901D0022008BD82684FF4805380
:101B10009A4201D1016921B1816A9A421BD04AB12E
:101B20000AE00268816A5268C2F308020A80816A88
:101B3000891C08E0026972B10268526802F07F02F3
:101B40000A70816A491C8162C18D491E0904090C11
:101B5000C18503D01BE002685268F1E70168CA68DA
:101B600022F02002CA600168CA6822F48072CA604A
:101B700001684A6922F001024A61202180F842107E
:101B800000214163026B012A03D0FFF74DFC0020C6
:101B900008BD016301680C3151E8002F22F01002EA
:101BA00041E80023002BF5D101680A68D20602D56E
:101BB0000A6849680091818DFFF78BFAE7E700001A
:101BC00070B5044600680169E26821F44051114390
:101BD00001612169A0680843616908432168CA68F6
:101BE00041F20C639A430243CA6020684169A269CA
:101BF00021F44071114341611E492068884202D19D
:101C0000FEF768FE01E0FEF755FE00EBC00101EBB8
:101C10000012606864218000B2FBF0F3B3FBF1F3C3
:101C20006FF018067343B2FBF0F5B2FBF0F605EB6C
:101C30008305322303EB0515B5FBF1F5B6FBF1F691
:101C400005F0F00505EB0615B2FBF0F6B2FBF0F07F
:101C5000B0FBF1F06FF01802504306EB800003EB8D
:101C60000010B0FBF1F0216800F00F0028448860FC
:101C700070BD0000003801402DE9F041984617463C
:101C80000E460446069D27E0681C25D02DB1FEF7C0
:101C9000DDFCA0EB0800A8421ED920680C3050E8FB
:101CA000001F21F4D07140E80012002AF5D120680D
:101CB000143050E8001F21F0010140E80012002A12
:101CC000F5D1202084F8410084F84200002084F8F7
:101CD00040000320BDE8F0812068006836EA00007B
:101CE00004D00020B842CFD00020F3E70120F9E76C
:101CF0000148FFF7F1B900006C000020FEE700008A
:101D00000FB4054B10B503A9044A029800F028F857
:101D100010BC5DF814FB000021200008100000201A
:101D20000907090E002804DB00F1E02080F8001408
:101D3000704700F00F0000F1E02080F8141D70479C
:101D400002E008C8121F08C1002AFAD17047704784
:101D5000002001E001C1121F002AFBD170470000E2
:101D60002DE9FF4F8DB09B460F460446002606E046
:101D700025280BD05A460F999047641C761C207872
:101D80000028F5D111B03046BDE8F08F0025A846F7
:101D90000122984900E0054314F8013F203B02FA74
:101DA00003F00842F7D120782E2817D114F8010F3C
:101DB00045F004052A280ED06FF02F022078A0F1FC
:101DC000300109290AD808EB880102EB410100EB38
:101DD0000108641CF2E757F8048B641C20786C2817
:101DE0000DD004DC4C2812D06A2811D104E07428EC
:101DF0000DD07A280CD10AE045F4001507E061788F
:101E000045F48015814202D1641C05F58015641CDF
:101E10002078692844D008DC0028B3D0582867D03F
:101E200063280FD0642808D13AE0702865D0732861
:101E300012D075285AD078285AD05A460F99904710
:101E4000761CD5E017F8040B8DF8000000208DF803
:101E50000100E946012003E057F8049B4FF0FF30F2
:101E600069074FF0000501D40AE06D1C45450DDA05
:101E70008542FADB19F805100029F6D106E06D1C41
:101E80008542FCDB19F805100029F8D12E4404E046
:101E900019F8010B5A460F9990476D1EF8D2A7E02A
:101EA0000A200021CDE90801C5F3025002280CD018
:101EB00001CFC117021E71F100020CDA0023D0EB32
:101EC000030063EB01012D2208E0FF1D27F0070747
:101ED000F7E80201EEE72A0504D52B228DF8282029
:101EE00001223CE0EA073AD02022F7E70A2000E08E
:101EF00010200021CDE9080107E01020002145F065
:101F00000405CDE908014FF00808C5F30250022886
:101F100010D001CF00214FF0000A2A0720D52278E7
:101F2000702A0DD0DDE908C38CF0100C5CEA030CBC
:101F30000CD015E0FF1D27F00707F7E80201EAE7DC
:101F400040228DF828204FF0010A0CE050EA0103EE
:101F500006D030238DF828308DF8292002229246B1
:101F60002278582A04D024A20DF120090B9209E00E
:101F700026A2F9E7DDE90823FEF71AF90B9B9B5C23
:101F800009F8013D50EA0102F4D1ADEB090020301F
:101F90000890680701D44FF001080899884503DDCF
:101FA0000898A8EB000000E000208046002506E02D
:101FB0000AA85A46405D0F9990476D1C761C5545FE
:101FC000F6DB04E030205A460F999047761CB8F1B2
:101FD0000001A8F10108F5DC05E019F8010B5A46EB
:101FE0000F999047761C0899481E08900029F4DC48
:101FF000641CC4E6092801003031323334353637E9
:102000003839616263646566000000003031323344
:1020100034353637383941424344454600000000E4
:1020200013B54FF47A73012269460248FFF7FDF9B0
:1020300000981CBD6C000020FEF716FBFFF7FFFCAC
:10204000FFF742FAFFF7D4FAFFF7AEFA02A0FFF764
:1020500057FE00F01FF8FEE7537461727420757329
:102060006172743120545820616E642052582E2EB3
:102070002E0D0A00002201210148FEF7E1BA0000FE
:1020800000100140012211460148FEF7D9BA0000B4
:10209000001001401CB5002000909F208DF8040026
:1020A000FFF7E8FF012201A90D48FEF7A1FF4FF459
:1020B0007A70FEF797F9032269460948FEF7DCFEBD
:1020C0004FF4FA60FEF78EF9FFF7DCFF9DF802305F
:1020D0009DF801209DF8001002A0FFF711FE1CBD25
:1020E000140000206A6964203D20307825782C3067
:1020F0007825782C307825780D0A0000010202033B
:102100000405060708090A0B0C0D0E0F101000003D
:102110000000000000000102030406070809000097
:102120000000010203040000482100080000002014
:1021300014000000401D00085C210008140000206D
:10214000A4040000501D0008010000001000000061
:0C215000000000000024F400000000006B
:0400000508000131BD
:00000001FF
