:020000040800F2
:1000000080090020490100083D070008D3060008C8
:1000100039070008C302000893120008000000001E
:10002000000000000000000000000000550D000866
:1000300019050008000000003D0C0008410E0008F2
:100040006301000863010008630100086301000800
:100050006301000863010008270500086301000828
:1000600063010008630100086301000863010008E0
:100070006301000863010008630100083103000800
:1000800063010008630100085D02000863010008C5
:1000900063010008630100086301000863010008B0
:1000A00063010008630100086301000863010008A0
:1000B0006301000863010008630100086301000890
:1000C0006301000863010008630100086301000880
:1000D000630100083D10000871100008A510000819
:1000E000410500086301000863010008630100087E
:1000F0006301000863010008630100086301000850
:10010000630100086301000863010008630100083F
:100110006301000863010008C90E0008050F00080C
:10012000630100086301000863010008630100081F
:10013000DFF810D000F054F800480047A51C000874
:10014000AFF300808009002006488047064800473A
:10015000FEE7FEE7FEE7FEE7FEE7FEE7FEE7FEE777
:10016000FEE7FEE7690E00083101000840EA0103DE
:100170009B0703D009E008C9121F08C0042AFAD25D
:1001800003E011F8013B00F8013B521EF9D2704721
:10019000D2B201E000F8012B491EFBD270470022C9
:1001A000F6E710B513460A4604461946FFF7F0FF76
:1001B000204610BD30B50B46014600202022012408
:1001C00009E021FA02F59D4205D303FA02F5491B25
:1001D00004FA02F52844151EA2F10102F1DC30BD3B
:1001E000064C074D06E0E06840F0010394E8070084
:1001F00098471034AC42F6D3FFF79EFFE42800087E
:100200000429000870B58C1810F8015B15F007037D
:1002100001D110F8013B2A1106D110F8012B03E09F
:1002200010F8016B01F8016B5B1EF9D12B0705D4A7
:100230000023521E0DD401F8013BFAE710F8013BF0
:10024000CB1A921C03E013F8015B01F8015B521E0C
:10025000F9D5A142D8D3002070BD000010B54FF4ED
:100260000871084800F01BF8012804D1054800F087
:1002700012F8054908804FF40871024800F006F8AA
:1002800010BD0000002801402800002000220A12B2
:10029000D343036070470146C86C80B2704770B5A5
:1002A00002460020002300240B125568CEB205EA56
:1002B000060415681D4015B10CB1012000E00020B6
:1002C00070BD00BFFEE7000008B50121082000F066
:1002D000C7FC4FF48060ADF8000010208DF80300DB
:1002E00003208DF802006946024800F051F900F041
:1002F00003F808BD000C014010B54FF480610248BE
:1003000000F0E3F910BD0000000C014010B50748F3
:10031000006880F4806005490860091503480C38BE
:1003200000F0CAF90446204610BD00000C0C014044
:1003300010B54FF4003000F015F818B14FF400304C
:1003400000F002F810BD000000F0805111B1034927
:10035000086001E002494860704700000404024060
:100360000000024001460020002201F0805313B13A
:10037000054B1A6801E0054B1A6802EA01030BB14C
:10038000012000E00020704700040240000002400D
:1003900070B50024002521E01021124800F097F9E3
:1003A000052001F015FA10210E4800F08EF9052005
:1003B00001F00EFA641010210A4800F088F90520B7
:1003C00001F006FA1021074800F06DF908B144F079
:1003D00080043C2001F0FCF9681CC5B2082DDBDB71
:1003E000204670BD0008014070B500BF00F02EF837
:1003F0000028FBD0CC2000F04FF8442000F04CF84F
:10040000022001F0B5F900BF00F020F80028FBD071
:10041000CC2000F041F8BE2000F03EF8FFF7B8FF16
:100420000546FFF7B5FF04467F2C04DDE843C5B25F
:10043000E043401CC4B22846E91705EB11710911CD
:1004400001EB04118EB2304670BD000010B51021D2
:10045000104800F03CF9322001F0BAF910210D48A3
:1004600000F033F94FF4167001F0B2F91021094889
:1004700000F02DF9322001F0ABF91021054800F011
:1004800012F90446F02001F0A3F90CB9012010BDC7
:100490000020FCE70008014070B5044600251FE07D
:1004A0001021114800F011F9052001F091F904F034
:1004B000010020B110210C4800F009F903E01021DF
:1004C000094800F002F93C2001F082F910210648A9
:1004D00000F0FDF8052001F07BF96410681CC5B23E
:1004E000082DDDDB012070BD0008014008B50121A9
:1004F000042000F0B5FB1020ADF8000014208DF8AA
:10050000030003208DF802006946024800F040F81D
:1005100008BD000000080140704710B501F024F844
:1005200001F002FC10BD10B54FF4005000F01CF8B3
:1005300028B101F0ADFB4FF4005000F00FF810BDF2
:1005400010B54FF4005000F00FF828B101F0A0FBF7
:100550004FF4005000F002F810BD0000014908609F
:100560007047000014040140014600200022074BA0
:100570001B6803EA0102054B14331B680B4013B1DF
:100580000AB1012000E00020704700000004014093
:100590002DE9F0410246002500260020002300241A
:1005A000002791F803C00CF00F0591F803C00CF080
:1005B000100CBCF1000F03D091F802C04CEA050505
:1005C00091F800C0BCF1000F31D0146800202BE07E
:1005D0004FF0010C0CFA00F3B1F800C00CEA03066E
:1005E0009E4220D183004FF00F0C0CFA03F7BC435E
:1005F00005FA03FC4CEA040491F803C0BCF1280F8F
:1006000006D14FF0010C0CFA00FCC2F814C00AE04D
:1006100091F803C0BCF1480F05D14FF0010C0CFA62
:1006200000FCC2F810C0401C0828D1D31460B1F8F7
:1006300000C0BCF1FF0F34DD546800202EE000F153
:10064000080C4FF0010808FA0CF3B1F800C00CEAEE
:1006500003069E4221D183004FF00F0C0CFA03F7E2
:10066000BC4305FA03FC4CEA040491F803C0BCF156
:10067000280F05D100F1080C08FA0CF8C2F8148014
:1006800091F803C0BCF1480F07D100F1080C4FF0FE
:10069000010808FA0CF8C2F81080401C0828CED3D4
:1006A0005460BDE8F0810246002093680B400BB116
:1006B000012000E00020704702460020D3680B4074
:1006C0000BB1012000E000207047416170470161DB
:1006D000704700BFFEE7000010B540210748FFF754
:1006E000F6FF80210548FFF7F2FF80210348FFF75E
:1006F000ECFF40210148FFF7E8FF10BD000C01406E
:1007000010B540210548FFF7E2FF80210348FFF7BD
:10071000DCFF80210148FFF7DAFF10BD000C01402B
:1007200010B540210348FFF7D2FF40210148FFF7F1
:10073000CCFF10BD000C014000BFFEE77047000079
:1007400002490143024A1160704700000000FA05A7
:100750000CED00E070B5002418E004F1B0000021B9
:1007600000F082F90021084600F07EF900211020F7
:1007700000F07AF9002505E00121002000F074F96D
:10078000681CC5B2802DF7DB601CC4B2082CE4DB0A
:1007900070BD000008B50121082000F061FAC020FA
:1007A000ADF8000010208DF8030003208DF8020042
:1007B00069463D48FFF7ECFEC0213B48FFF787FF45
:1007C0004FF4487000F0D4FF0021AE2000F04CF947
:1007D0000021084600F048F90021102000F044F9FB
:1007E0000021402000F040F90021B02000F03CF949
:1007F0000021812000F038F90021FF2000F034F9B9
:100800000021A12000F030F90021A62000F02CF9F1
:100810000021A82000F028F900213F2000F024F951
:100820000021C82000F020F90021D32000F01CF99D
:100830000021084600F018F90021D52000F014F935
:100840000021802000F010F90021D82000F00CF9E0
:100850000021052000F008F90021D92000F004F95A
:100860000021F12000F000F90021DA2000F0FCF86E
:100870000021122000F0F8F80021DB2000F0F4F84D
:100880000021302000F0F0F800218D2000F0ECF87D
:100890000021142000F0E8F80021AF2000F0E4F877
:1008A000FFF758FF08BD0000000C014070B504467A
:1008B0000D4605F1B000002100F0D6F8102141EA04
:1008C0001410002100F0D0F804F00F00002100F017
:1008D000CBF870BD2DE9F04180460E461546002745
:1008E00031464046FFF7E2FF00240AE0124A02EBDD
:1008F0008511085D012100F0B7F8781CC7B2601CB3
:10090000C4B2102CF2DB701CC1B24046FFF7CEFF20
:1009100000240CE06900491C074A02EB4111085D04
:10092000012100F0A1F8781CC7B2601CC4B2102CE1
:10093000F0DBBDE8F0810000320000202DE9F04737
:1009400007460E469046994600250024A8F120004F
:10095000C5B27F2F02DD0027B01CC6B2B9F1100F5F
:1009600024D131463846FFF7A1FF002408E004EB0C
:100970000511194A505C012100F076F8601CC4B2E0
:10098000082CF4DB701CC1B23846FFF78FFF00243F
:1009900009E004EB051108310F4A505C012100F019
:1009A00063F8601CC4B2082CF3DB12E03146384611
:1009B000FFF77CFF00240AE005EB4501074A02EB44
:1009C0004101085D012100F04FF8601CC4B2062C03
:1009D000F2DBBDE8F0870000DB220008B32000084E
:1009E0002DE9FF5F074691461E460E9D4FF0000A17
:1009F000002435E0301B401EC1B20A2001F0AEF9E0
:100A0000B9FBF0F00A21B0FBF1F201FB1208BAF1D8
:100A1000000F14D1701EA04211DDB8F1000F0CD1EF
:100A2000AB4605EBDB71491001FB0471C8B22B46E4
:100A300020220199FFF782FF10E04FF0010AAB4638
:100A400005EBDB71491001FB0471C8B208F13001FC
:100A5000CAB22B460199FFF771FF00BF601CC4B2F8
:100A6000B442C7DBBDE8FF9F70B504460D461DB11B
:100A7000E0B200F067FC02E0E0B200F04DFC70BDB7
:100A800038B5082204210020FFF724FF09220421A1
:100A90001020FFF71FFF0A2204212020FFF71AFF72
:100AA0000B2204213020FFF715FF10233A220421E6
:100AB0004020FFF743FF3F484088642190FBF1F05E
:100AC0000A2190FBF1F201FB1204102001232246BF
:100AD000042100905020FFF783FF364840880A2108
:100AE00090FBF1F090FBF1F201FB120410200123C6
:100AF0002246042100906020FFF772FF2D484088B5
:100B00000A2190FBF1F201FB12041020012322467E
:100B1000042100907020FFF763FF062202210020CD
:100B2000FFF7D8FE072202211020FFF7D3FE0A228A
:100B300002212020FFF7CEFE0B2202213020FFF7FA
:100B4000C9FE10233A2202214020FFF7F7FE194880
:100B50008088642190FBF1F00A2190FBF1F201FB07
:100B60001204102001232246022100905020FFF79A
:100B700037FF104880880A2190FBF1F090FBF1F2DA
:100B800001FB120410200123224602210090602064
:100B9000FFF726FF074880880A2190FBF1F201FB4E
:100BA0001204102001232246022100907020FFF73A
:100BB00017FF38BD2A00002010B50022114610464C
:100BC000FFF788FE0A2200211020FFF783FE032290
:100BD00000212020FFF77EFE042200213020FFF7B5
:100BE00079FE10BD10B5012200210846FFF772FE04
:100BF000022200211020FFF76DFE03220021202099
:100C0000FFF768FE042200213020FFF763FE10BDCD
:100C100010B5052200210846FFF75CFE0B220021DB
:100C20001020FFF757FE032200212020FFF752FE7D
:100C3000042200213020FFF74DFE10BD7047000058
:100C400029B1064AD2690243044BDA6104E0034A3F
:100C5000D2698243014BDA61704700000010024004
:100C600029B1064A92690243044B9A6104E0034A9F
:100C700092698243014B9A61704700000010024064
:100C800030B500210022002400232D4D6D6805F0B1
:100C90000C0121B1042905D0082923D105E0294DF3
:100CA000056022E0274D05601FE0254D6D6805F4C5
:100CB0007012234D6D6805F48034022505EB9242D5
:100CC0001CB9214D554305600BE01D4D6D6805F4C1
:100CD00000351DB11C4D5543056002E0194D5543CB
:100CE000056002E0174D056000BF00BF144D6D6840
:100CF00005F0F0010909154D6B5C0568DD404560A4
:100D00000F4D6D6805F4E061090A104D6B5C456894
:100D1000DD4085600A4D6D6805F46051C90A0B4DD0
:100D20006B5C4568DD40C560054D6D6805F440416C
:100D3000890B074D6B5CC568B5FBF3F5056130BDEC
:100D40000010024000127A0000093D00000000205F
:100D500010000020704710B500F002F810BD000030
:100D60000CB50020019000903348006840F48030BA
:100D70003149086000BF3048006800F4003000903E
:100D80000198401C0190009818B90198B0F5A06F27
:100D9000F1D12948006800F4003010B10120009022
:100DA00001E0002000900098012843D1234800680A
:100DB00040F01000214908600846006820F0030058
:100DC00008600846006840F0020008601A48406861
:100DD000194948600846406848600846406840F441
:100DE000806048600846406820F47C1048600846EF
:100DF000406840F4E81048600846006840F08070A1
:100E0000086000BF0C48006800F000700028F9D0AE
:100E10000948406820F003000749486008464068D8
:100E200040F00200486000BF0348406800F00C003A
:100E30000828F9D10CBD000000100240002002403B
:100E400010B508480088401C0649088008460088FC
:100E5000B0F57A7F04D100F01BFF00200149088023
:100E600010BD00001400002010B51348006840F0C9
:100E700001001149086008464068104908400E49C1
:100E80004860084600680E4908400B49086008465B
:100E9000006820F4802008600846406820F4FE00C6
:100EA00048604FF41F008860FFF755FF4FF0006067
:100EB0000449086010BD0000001002400000FFF867
:100EC000FFFFF6FE08ED00E010B501210B4800F031
:100ED00052F890B10A480088401C09490880084629
:100EE0000088B0F57A7F04D100F0D2FE00200449DA
:100EF00008800121014800F026F810BD00140040D0
:100F00001600002010B501210B4800F034F890B114
:100F10000A480088401C0949088008460088B0F546
:100F20007A7F04D100F0B4FE00200449088001213A
:100F3000014800F008F810BD00140040180000201F
:100F4000CA4302827047CA430282704721B10288B5
:100F500042F00102028004E002884FF6FE731A405C
:100F60000280704702460020138A0B400BB101201B
:100F700000E00020704730B5024600200023002426
:100F8000158A05EA0103958905EA010413B10CB13C
:100F9000012000E0002030BD002202881D4B984255
:100FA0000ED01D4B98420BD0B0F1804F08D01B4B98
:100FB000984205D01A4B984202D01A4B984204D15D
:100FC0004FF68F731A404B881A43174B984207D03D
:100FD000164B984204D04FF6FF431A40CB881A4371
:100FE00002808B8883850B8803850A4B98420BD03F
:100FF000094B984208D00E4B984205D00D4B9842B1
:1010000002D00D4B984201D10B7A038601238382D3
:1010100070470000002C01400034014000040040F3
:1010200000080040000C0040001000400014004088
:1010300000400140004401400048014010B540F22A
:101040002551094800F061F868B1074800F018F927
:10105000C4B22146054800F0C7FA044800F01FFB5F
:1010600008B100F0E5FF10BD003801408803002002
:1010700010B540F22551094800F047F868B107481B
:1010800000F0FEF8C4B22146054800F0ADFA04486D
:1010900000F005FB08B100F0CBFF10BD00380140A7
:1010A0008803002010B540F22551094800F02DF8C2
:1010B00068B1074800F0E4F8C4B22146054800F0E2
:1010C00093FA044800F0EBFA08B100F0B1FF10BD4C
:1010D000003801408803002021B1828942F4005287
:1010E000828104E082894DF6FF731A408281704745
:1010F00002460020B1F5007F00D100BF13880B40ED
:101100000BB1012000E00020704770B502460024BA
:1011100000230025002040F66A16B14200D100BF2E
:10112000C1F3421501F01F03012606FA03F3012D56
:1011300002D19689334006E0022D02D1168A33404F
:1011400001E0968A33400C12012606FA04F4168850
:10115000344013B10CB1012000E0002070BDF0B5A7
:101160000346002400260025002040F66A17B942F5
:1011700000D100BF1846C1F3421401F01F06012739
:1011800007FA06F5012C01D10C3004E0022C01D144
:10119000103000E014301AB107682F43076002E0F6
:1011A0000768AF430760F0BD2DE9F04786B00546FC
:1011B0000E460024A24600BFA1460027B08900B118
:1011C00000BF2F462C8A4CF6FF700440F088044381
:1011D0002C82AC894EF6F3100440B0883189084364
:1011E000718908430443AC81AC8A4FF6FF40044048
:1011F000B0890443AC8201A8FFF742FD1F48874233
:1012000002D1DDF810A001E0DDF80CA0A88900F4FF
:10121000004040B10AEBCA0000EB0A1031684900F7
:10122000B0FBF1F807E00AEBCA0000EB0A103168E6
:101230008900B0FBF1F86420B8FBF0F0040120094C
:10124000642101FB1089A88900F4004040B13220DC
:1012500000EBC900B0FBF1F000F00700044308E028
:10126000322000EB09106421B0FBF1F000F00F0018
:1012700004432C8106B0BDE8F0870000003801402F
:1012800001468888C0F308007047C1F308028280D5
:10129000704700BFFEE7000008B501210820FFF7F6
:1012A000DFFC4FF48070ADF8000004208DF80300DF
:1012B00003208DF8020069460148FFF769F908BD6F
:1012C000000C01402DE9F04105462C464021114813
:1012D000FFF7FBF9002619E0274607F08007802F6B
:1012E00004D180210B48FFF7F2F903E0802109487F
:1012F000FFF7EBF96006040E40210648FFF7E7F917
:1013000040210448FFF7E1F9701CC6B2082EE3DB68
:10131000BDE8F081000C014010B50446FFF7DCF990
:101320007820FFF7CFFFFFF7FBF90020FFF7CAFF98
:10133000FFF7F6F92046FFF7C5FFFFF7F1F9FFF7D2
:10134000DFF910BD10B50446FFF7C6F97820FFF7A6
:10135000B9FFFFF7E5F94020FFF7B4FFFFF7E0F929
:101360002046FFF7AFFFFFF7DBF9FFF7C9F910BD24
:101370000FB4054B10B503A9044A029800F018F801
:1013800010BC5DF814FB00003D1900087403002038
:1013900002E008C8121F08C1002AFAD1704770473E
:1013A000002001E001C1121F002AFBD1704700009C
:1013B0002DE9FF4F8BB09A460F460546002606E002
:1013C00025280BD052460D9990476D1C761C287825
:1013D0000028F5D10FB03046BDE8F08F0024A046BC
:1013E0000122604900E0044315F8013F203B02FA66
:1013F00003F00842F7D128782E2817D115F8010FED
:1014000044F004042A280ED06FF02F022878A0F1AF
:10141000300109290AD808EB880102EB410100EBF1
:1014200001086D1CF2E757F8048B6D1C28786928B9
:101430003ED006DC0028CDD063280BD0642804D130
:1014400036E0732810D075284BD052460D9990473E
:10145000761C85E017F8040B8DF8000000208DF84D
:101460000100E946012003E057F8049B4FF0FF30EC
:1014700061074FF0000401D40AE0641C44450DDA12
:101480008442FADB19F804100029F6D106E0641C46
:101490008442FCDB19F804100029F8D1264404E04A
:1014A00019F8010B52460D999047641EF8D257E087
:1014B00001CF4FF00A0B002802DA40422D2102E052
:1014C000210504D52B218DF82410012103E0E1072B
:1014D00005D02021F7E70DF1200908910CE000214B
:1014E000F9E701CF4FF00A0BF9E75946FEF762FE24
:1014F00001F1300209F8012D0028F6D1ADEB090009
:1015000000F1200B600701D44FF00108D84502DD3F
:10151000A8EB0B0000E000208046002406E009A8AC
:101520005246005D0D999047641C761C08988442D1
:10153000F5DB04E0302052460D999047761CB8F157
:101540000001A8F10108F5DC05E019F8010B52468D
:101550000D999047761CBBF10001ABF1010BF4DC57
:101560006D1C34E70928010010B500F06BFA00F09B
:101570005FFC00F017FBFFF78FFEFEF7A5FE00F003
:1015800031FAFEF7B3FFFFF705F910BD054800215A
:10159000016041600020034988714880888008709C
:1015A000C87170472A00002010B50C4800F0DAF826
:1015B0000A48243000F0D6F800200949C8600749DD
:1015C00048640862002240F225510648FFF7C7FD33
:1015D00000210448FFF780FD012010BD8803002092
:1015E000780300200038014030B503460C46002542
:1015F000184600F0C9FA50B91968481C18600C70F8
:1016000019691868884201D3D868186001252846EE
:1016100030BD2DE9F04704460F4616464FF000084E
:101620000025A9461BE0204600F09AF90546ADB119
:10163000B54200D3354607EB08012A462068FEF77D
:1016400095FD20682844206021692068884201D3E4
:10165000E0682060A844761BA94400E001E0002E69
:10166000E1D100BF4846BDE8F08730B5039CC160BA
:10167000C2618D18056183614461C568456005607C
:10168000C568856030BD10B50446204600F0A0F95D
:10169000A169884201D8012010BD0020FCE710B5E7
:1016A0000446204600F094F96169884201D3012084
:1016B00010BD0020FCE70246D2E90003984201D1A8
:1016C000002070475368581C5060187808701369E0
:1016D0005068984201D3D0685060506890600120F3
:1016E000EFE72DE9F04704460F4616464FF0000895
:1016F0000025A9461CE0204600F053F90546B5B187
:10170000B54200D335462FB107EB08002A46616881
:10171000FEF72CFD6068284460602169606888429B
:1017200001D3E0686060A844761BA94400E001E0B2
:10173000002EE0D100BF4846BDE8F087024693681E
:101740001068984201D1002070479368581C90603F
:101750001878087013699068984201D3D068906037
:101760000120F1E7C16841600160C1688160704794
:101770003EB50446B4F5FA7F01D94FF4FA7401215D
:101780002020FFF75DFAC4EBC40000EB841080B2A8
:10179000ADF8040040F2E730ADF8000069460B48B0
:1017A000FFF7FAFB01210948FFF7CAFB01210748AF
:1017B000FFF7CCFB00BF01210448FFF7D3FB002853
:1017C000F9D000210148FFF7C1FB3EBD00140040E5
:1017D0003EB50446B4F5FA7F01D94FF4FA740121FD
:1017E0002020FFF72DFAC4EBC40000EB841080B278
:1017F000ADF804000020ADF8000069460B48FFF783
:10180000CBFB01210948FFF79BFB01210748FFF7AC
:101810009DFB00BF01210548FFF7A4FB0028F9D07C
:1018200000210248FFF792FB3EBD0000001400407B
:1018300010B500F0EFF90446012C06D0022C18D0A8
:10184000032C2AD0042C50D13BE02948807978B968
:10185000FEF75CFD30B101202549C87125A0FFF7D6
:1018600087FD05E000202249C87125A0FFF780FD13
:101870003CE01F48C07978B900F0D4F830B10120BD
:101880001B49887121A0FFF773FD05E0002018496E
:10189000887121A0FFF76CFD28E015488088642836
:1018A0000EDA1348808800280ADB11488088104926
:1018B000888008468088401C88801AA0FFF758FD61
:1018C00014E00B48808864280EDC094880880028D2
:1018D0000ADD074880880649888008468088401EBF
:1018E000888013A0FFF744FD00E000BF00BF10BDDB
:1018F0002A000020B4F2BFAACBAEB1C30D0A00008B
:10190000B9D8B1D5CBAEB1C30D0A0000B4F2BFAAAD
:10191000BCD3C8C80D0A0000B9D8B1D5BCD3C8C85B
:101920000D0A0000C9E8CEC22B310D0A00000000EC
:10193000C9E8CEC22D310D0A0000000070B5044682
:101940000D46E1B20548FFF7A0FC00BF8021034827
:10195000FFF7CEFB0028F9D0204670BD00380140CB
:1019600070B503460026184600F00EF908B130465F
:1019700070BD1C685D68AC4206D91869061BD86842
:10198000A8420CD1761E0AE0AC4202D22E1B761E73
:1019900005E01869061BD868A84200D1761E3046BB
:1019A000E6E770B504460026204600F0E4F808B1EA
:1019B000304670BD256863689D4201D9EE1A05E086
:1019C0009D4202D22069C61A00E000263046F0E7A8
:1019D0000146D1E90023D01A002801DACA6910446F
:1019E0007047000008B501211020FFF739F9802069
:1019F000ADF8000010208DF8030003208DF80200E0
:101A000069460348FEF7C4FD00F004F808BD000075
:101A10000010014010B580210148FEF756FE10BDB0
:101A20000010014010B50648C06880F080000449ED
:101A3000C86080210248FEF73FFE0446204610BDE4
:101A4000001001400021094A116000200AE0002135
:101A5000074A02EB40121170054A02EB401211775F
:101A6000411CC8B20A28F2DB7047000024000020A5
:101A7000D00300202DE9F04105460E4617464FF0F1
:101A800000080A2D02DB0020BDE8F081084800EBC9
:101A90004514207808B90020F6E7394630466268D8
:101AA000904710B10120207780464046ECE70000C7
:101AB000D0030020F0B5044605ADE0CDDFF824C02A
:101AC0000CEB44104FF0010C80F800C04FF0000CFC
:101AD00080F81CC041608260C36005614661876117
:101AE000F0BD0000D003002001460A2901DB0020E0
:101AF0007047074800EB4110007F08B90020F7E766
:101B0000034800EB4110034A10600120F0E7000099
:101B1000D00300202400002000B58DB0202105A8AE
:101B2000FEF73DFB002001900290039004900E48C8
:101B3000059064300690642007900A2008900020E9
:101B40000A905A20099000200C9005200B9001A8C3
:101B500000F02EF901AA05A90020FFF78BFF002055
:101B6000FFF7C2FF0DB000BD1005002002460020A7
:101B70000860012070470146D1E90002904201D17E
:101B8000012070470020FCE701460868421C0869F4
:101B9000904200D8CA684868904201D1012070473D
:101BA0000020FCE708B501210420FFF759F80420C4
:101BB000ADF800008DF8030003208DF8020069469F
:101BC0001348FEF7E5FC01210420FFF749F808203F
:101BD000ADF8000069460E48FEF7DAFC012104204A
:101BE000FFF73EF84FF40060ADF800006946084882
:101BF000FEF7CEFC01210420FFF732F84FF48050AD
:101C0000ADF8000069460248FEF7C2FC08BD0000BE
:101C10000008014010B5002404211C48FEF743FDD4
:101C200038B100BF04211948FEF73DFD0028F9D165
:101C3000012408211548FEF736FD38B100BF082100
:101C40001248FEF730FD0028F9D102244FF400615C
:101C50000E48FEF728FD40B100BF4FF400610B486D
:101C6000FEF721FD0028F8D103244FF480510748E6
:101C7000FEF719FD40B100BF4FF480510348FEF755
:101C800012FD0028F8D10424204610BD00080140B0
:101C90000348006880F001000149086070470000B7
:101CA0000C0C014000244FF44070FEF749FDFEF794
:101CB00034FCFFF76BFC2EE000240020164908706E
:101CC000FEF792FB0446144844800078A0B91248FD
:101CD00040881149898888420BDB0F4880790128A8
:101CE00007D1FFF797FE00200B4988710BA0FFF783
:101CF0003FFB00F01DF80CE0FFF748FCFEF7FCFA94
:101D0000FFF788FE02200449887100F011F800BF37
:101D1000FEE7FFF78DFDCFE72A000020B9D8B1D547
:101D2000BCD3C8C80D0A000010B5FFF7F5FE10BD02
:101D300010B50948847914B9FEF76AFF08E0012C50
:101D400002D1FEF74FFF03E0022C01D1FEF734FF72
:101D5000FEF796FE10BD00002A00002010B50246D6
:101D6000012000E050430B1EA1F10104E1B2F9D1C2
:101D700010BD70B504460D462946204600F0A2F875
:101D800070BD000070B504460E46002508E02146EF
:101D90000648FFF7D3FC10B1641C6D1C00E001E0A5
:101DA000B542F4D300BF284670BD00008803002070
:101DB0004FF4E13101600021017141718171C17104
:101DC0000C2101727047000070B504460D462A468A
:101DD00021460648FFF785FC06460448FFF753FCFA
:101DE00008B100F02DF9304670BD000088030020D6
:101DF0001FB50446002000900190029003902068D7
:101E000000902079ADF804006079ADF80600A07963
:101E1000ADF80800E079ADF80C00207AADF80A00C2
:101E200069460248FFF7C0F91FBD000000380140B5
:101E30000EB506480649074A074BCDE90021029036
:101E4000064A07490020FFF735FE0EBD6D1B00084E
:101E5000851D000871200008C91D0008A91500088B
:101E6000731D000808B50020009001210420FEF732
:101E7000F7FE01210420FEF7F3FE01218803FEF79F
:101E8000EFFE4FF40070ADF8000018208DF803004D
:101E900003208DF8020069460948FEF779FB4FF4EC
:101EA0008060ADF8000004208DF8030003208DF859
:101EB000020069460248FEF76BFB00F09DF808BD82
:101EC00000080140F8B504460D46ACB12069009009
:101ED0002C486369A2682168FFF7C7FBA0690090DE
:101EE00028482430E369E2686168FFF7BEFB2648B2
:101EF00095E84E004EC001E00020F8BD252000F01E
:101F00001F0201219140214A430942F8231000BFDA
:101F10000121002807DA0A07160E1D4A00F00F03F8
:101F20001B1FD65403E00A07130E1A4A135400BFAE
:101F3000252000F01F02012191404209920002F188
:101F4000E022C2F8001100BFFFF78CFF2846FFF720
:101F50004FFF012240F225510F48FFF700F9012100
:101F60000D48FFF7B9F80D4802680D4801680DA04B
:101F7000FFF7FEF98223114A11A118A0FFF7F8F923
:101F80000120BAE7880300207803002080E200E007
:101F900018ED00E000E400E00038014020000020DF
:101FA0001C000020636F6D70696C65722074696D30
:101FB00065203D2025732C25730D0A00A8200008FC
:101FC0002E2E5C757365725C62696F735C737263ED
:101FD0005C75736172742E630000000066696C6545
:101FE0002C66756E2C6C696E65203D2025732C2542
:101FF000732C25640D0A000008B500200090012113
:102000001020FEF72DFE8020ADF8000010208DF886
:10201000030003208DF8020069460448FEF7B8FA71
:1020200080210248FEF751FB08BD0000001001406E
:1020300010B580210148FEF74AFB10BD0010014099
:1020400010B580210148FEF740FB10BD0010014093
:1020500010B5044621460548FFF717F900BF802157
:102060000248FFF745F80028F9D010BD00380140BC
:10207000F8B504460D462A4621460A48FFF7C9FA34
:102080000646374609E069460648FFF714FB18B1D3
:102090009DF80000FFF7DCFF7F1E002FF3D13046D4
:1020A000F8BD0000AC03002075736172745F696E47
:1020B0006974000000000000000000002F00000014
:1020C000000700070000147F147F1400242A7F2AD1
:1020D000120062640813230036495522500000059F
:1020E00003000000001C224100000041221C0000EF
:1020F00014083E08140008083E0808000000A0600C
:1021000000000808080808000060600000002010B7
:10211000080402003E5149453E0000427F40000055
:102120004261514946002141454B31001814127F4C
:1021300010002745454539003C4A494930000171A6
:1021400009050300364949493600064949291E0058
:102150000036360000000056360000000814224108
:102160000000141414141400004122140800020189
:1021700051090600324959513E007C1211127C006F
:102180007F49494936003E41414122007F41412279
:102190001C007F49494941007F09090901003E416E
:1021A00049497A007F0808087F0000417F4100000C
:1021B0002040413F01007F08142241007F40404001
:1021C00040007F020C027F007F0408107F003E4128
:1021D00041413E007F09090906003E4151215E0050
:1021E0007F091929460046494949310001017F010B
:1021F00001003F4040403F001F2040201F003F4063
:1022000038403F0063140814630007087008070093
:10221000615149454300007F41410000552A552A3C
:1022200055000041417F00000402010204004040CB
:102230004040400000010204000020545454780043
:102240007F484444380038444444200038444448DB
:102250007F00385454541800087E0901020018A465
:10226000A4A47C007F080404780000447D400000A2
:102270004080847D00007F102844000000417F40A2
:1022800000007C04180478007C08040478003844BA
:1022900044443800FC242424180018242418FC008A
:1022A0007C0804040800485454542000043F44406F
:1022B00020003C4040207C001C2040201C003C4072
:1022C00030403C004428102844001CA0A0A07C0002
:1022D0004464544C441414141414140000000000FA
:1022E0000000000000000000000000000000F800F6
:1022F000000000000000333000000000100C061049
:102300000C0600000000000000000040C07840C043
:10231000784000043F04043F040400007088FC0877
:10232000300000001820FF211E0000F008F000E03F
:1023300018000000211C031E211E0000F0088870F8
:102340000000001E2123241927211010160E000062
:102350000000000000000000000000000000E01885
:10236000040200000000071820400000020418E0EA
:102370000000000040201807000000404080F0806E
:102380004040000202010F01020200000000F000C4
:102390000000000101011F01010100000000000018
:1023A00000000080B070000000000000000000008D
:1023B0000000000001010101010101000000000016
:1023C000000000003030000000000000000000802D
:1023D000601804006018060100000000E010080802
:1023E00010E000000F102020100F00001010F80067
:1023F0000000000020203F20200000007008080896
:10240000887000003028242221300000300888889D
:102410004830000018202020110E000000C02010BD
:10242000F8000000070424243F240000F8088888EE
:102430000808000019212020110E0000E0108888F3
:10244000180000000F112020110E0000380808C8E5
:102450003808000000003F000000000070880808F5
:10246000887000001C222121221C0000E0100808B6
:1024700010E0000000312222110F00000000C0C057
:10248000000000000000303000000000000080006C
:10249000000000000080600000000000008040207C
:1024A0001008000001020408102000404040404095
:1024B0004040000404040404040400000810204008
:1024C0008000000020100804020100007048080885
:1024D00008F0000000003036010000C030C828E8D5
:1024E00010E0000718272423140B000000C038E078
:1024F000000000203C23020227382008F888888842
:10250000700000203F202020110E00C03008080875
:10251000083800071820202010080008F8080808CC
:1025200010E000203F202020100F0008F88888E8E5
:10253000081000203F20202320180008F88888E891
:10254000081000203F200003000000C030080808E9
:1025500038000007182020221E020008F80800009A
:1025600008F808203F210101213F20000808F80851
:102570000800000020203F2020000000000808F88C
:10258000080800C08080807F00000008F888C0280C
:10259000180800203F20012638200008F808000015
:1025A000000000203F20202020300008F8F800F82C
:1025B000F80800203F003F003F200008F830C0002E
:1025C00008F808203F200007183F00E0100808081E
:1025D00010E0000F10202020100F0008F808080855
:1025E00008F000203F210101010000E01008080868
:1025F00010E0000F18242438504F0008F88888880D
:10260000887000203F2000030C30200070880808EC
:102610000838000038202121221C00180808F8087A
:102620000818000000203F2000000008F808000003
:1026300008F808001F202020201F000878880000CC
:10264000C83808000007380E010000F80800F8003C
:1026500008F800033C0700073C0300081868808066
:1026600068180820302C03032C30200838C800C814
:102670003808000000203F2000000010080808C8AB
:102680003808002038262120201800000000FE0213
:102690000202000000007F40404000000C30C000FB
:1026A000000000000000010638C00000020202FE27
:1026B000000000004040407F0000000000040202D3
:1026C0000204000000000000000000000000000004
:1026D00000000080808080808080800002020400F2
:1026E000000000000000000000000000008080806A
:1026F0008000000019242222223F2008F800808058
:10270000000000003F112020110E0000000080801A
:10271000800000000E1120202011000000008080A9
:1027200088F800000E112020103F200000808080DB
:10273000800000001F222222221300008080F088E7
:102740008888180020203F20200000000080808022
:10275000808000006B94949493600008F80080805F
:10276000800000203F210000203F2000809898003A
:102770000000000020203F20200000000000809882
:1027800098000000C08080807F000008F800008072
:10279000808000203F24022D302000000808F8002F
:1027A0000000000020203F202000008080808080EA
:1027B000808000203F20003F20003F8080008080FC
:1027C000800000203F210000203F2000008080800A
:1027D000800000001F202020201F008080008080BB
:1027E00000000080FFA12020110E0000000080806A
:1027F000808000000E112020A0FF8080808000805B
:1028000080800020203F2120000100000080808087
:102810008080000033242424241900008080E0807C
:102820008000000000001F202000008080000000C9
:10283000808000001F202020103F2080808000002A
:1028400080808000010E300806010080800080003A
:102850008080800F300C030C300F000080800080DF
:102860008080000020312E0E31200080808000000A
:1028700080808080818E70180601000080808080BA
:102880008080000021302C222130000000000080D8
:102890007C020200000000003F404000000000FFFA
:1028A00000000000000000FF0000000002027C8029
:1028B0000000000040403F0000000000060101024F
:1028C0000204040000000000000000004A756E20B1
:1028D000323320323032340031363A35323A3438FD
:1028E0000000000004290008000000207803000018
:1028F00004020008A82A0008780300200806000047
:10290000A0130008412D01020304048009060708F2
:10291000090204060813CC281B08D804E1000F1391
:10292000504847FC444440080808FF0808F8000FD6
:10293000113E201F107E8141310D030D3141812058
:1029400008101010FF1010F01AF843091140200869
:102950008040300F40807F1D7F202020070110170E
:10296000080888FF48480B1508487F100C81650847
:102970000720C0080423C0030C1123C40F411230E8
:102980001AFF5B1A20050411222C201E04040201E8
:10299000FF850008120E010618204080000E120468
:1029A00084844424548F14244484840423413900AF
:1029B0000C113C4040424C4040700409310010135F
:1029C000201808EAACA8A8AFA8A8ACEA0828181BE9
:1029D0003E02010713FF020212221E17424AD26A68
:1029E00046C0000911F2121AD61212F202144080E7
:1029F0007F1201080910804F20180710204FC019BE
:102A00009B12CC000B1440A09E8282829EA02020AC
:102A1000080C103F908840432C10284641804011FC
:102A2000000D144042445840407F40405048C67B0F
:102A30004044010213FF180D0808E8292E28E80871
:102A400008C80C0B06011326FF0949897F2A0FCA03
:102A5000011316202020A0600F12FF608040201874
:102A60001F2D100806013B07110102040810102554
:102A70001060028C2BFE92010213FE180A04047EE1
:102A800001407E42427E020411427E40280906092E
:102A900009E6F80C0402010315041E2E071F30205E
:082AA00040010A10207F7100C3
:0400000508000131BD
:00000001FF
